:100000000C9455000C9474000C9474000C947400BF
:100010000C9474000C9474000C9474000C947A1674
:100020000C94B9160C9474000C9474000C94740025
:100030000C9474000C9474000C9474000C94740070
:100040000C9474000C9474000C94810C0C94740047
:100050000C9474000C9474000C9474000C94740050
:100060000C9474000C9474000C9474000C94740040
:100070000C9474000C9474000C9474000C94740030
:100080000C9474000C9474000C9474000C94740020
:100090000C947400C6104311BB111E125812A91201
:1000A000ED1285133614C410321511241FBECFEF84
:1000B000D0E1DEBFCDBF12E0A0E0B1E0EAE2FAE3BA
:1000C00000E00BBF02C007900D92A83DB107D9F721
:1000D00012E0A8EDB2E001C01D92A73FB107E1F721
:1000E0000E947A000C94131D0C94000080E00E9482
:1000F0006E100895A0E1B0E0E0E8F0E00C949E1CE2
:1001000080E880936100109261003F98479A6E9852
:100110006F9880916A00806F80936A008DB3806CC5
:100120008DBB0E9476000E945B0C80E091E00E94F3
:10013000670C0E945D0283E191E00E94670C789455
:1001400085E291E00E94670C80EC90E062E044E17F
:1001500024E60E94310B80EC90E063E040E023EB6A
:100160000E94310B82EC90E062E049E120E80E94BD
:10017000310B82EC90E063E040E023EB0E94310B16
:1001800084EC90E062E044E124E60E94310B84ECD0
:1001900090E063E040E023EB0E94310B86EC90E0BE
:1001A00062E044E124E60E94310B86EC90E063E0DB
:1001B00040E023EB0E94310B8091DB00806880934C
:1001C000DB008091DB0080618093DB008091DB00AD
:1001D00080628093DB0089E391E00E94670C85E8F0
:1001E00090E09F838E8388E08A87CE01039663E048
:1001F0000E94910E882319F48FE591E002C089E6F0
:1002000091E00E94670C84B1806684B985B18066F4
:1002100085B980E791E00E94670C0E94F70A10926E
:10022000C7011092C60186E289831A828E010F5F90
:100230001F4F80E4F82E8FEF97ED0197F1F700C084
:1002400000008091DC02882341F48091B4019091F8
:10025000B50161E00E941B0813C0813041F4809118
:10026000BA019091BB0161E00E948C0509C0823007
:1002700039F48091B8019091B90161E00E94D102F6
:100280008091BE01880F9091C201990F990F892B1F
:100290009091C001892B8A838823B9F180FF09C01E
:1002A0008091DD029091DE028C609093DE0280935B
:1002B000DD026091DD027091DE0286EC90E00E942A
:1002C0009C021092D90210C084E8B80142E00E945A
:1002D0005C0E8FEF95E30197F1F700C0000080916D
:1002E000D9028F5F8093D9028091D902181664F7E2
:1002F0006091DD027091DE02607F7093DE02609398
:10030000DD0286EC90E00E949C021092BF011092E8
:10031000BE011092C1011092C0011092C30110924F
:10032000C20186EC90E00E947E0B8370809377017F
:10033000823061F48091DD029091DE028C608C7FCE
:100340009093DE028093DD0281E00DC0813071F474
:100350008091DD029091DE028360837F9093DE02C4
:100360008093DD0282E08093DC0213C02091DD02E5
:100370003091DE02882331F42F603093DE02209327
:10038000DD0207C0207F3093DE022093DD02109251
:10039000DC028091B8019091B9012091DD02309189
:1003A000DE028135910518F4306C3C7F02C0336069
:1003B0003F733093DE022093DD028091BA01909169
:1003C000BB012091DD023091DE028338910518F4E3
:1003D00030632F7302C0206C3F7C3093DE02209389
:1003E000DD028091BC019091BD012091DD02309130
:1003F000DE0242E08130940718F43C602F7C02C09A
:100400002063337F3093DE022093DD028091C401AC
:100410009091C501009729F084EC90E060E544E5F7
:100420003EC08091C6019091C7018730910528F0A8
:1004300084EC90E060E040E032C083309105E9F068
:100440008430910538F48130910571F08230910546
:1004500041F50EC085309105D1F08530910590F0C1
:1004600086309105F1F417C084EC90E060E00DC097
:1004700084EC90E064E441E512C084EC90E064E038
:1004800045E50DC084EC90E064E144E108C084ECF3
:1004900090E064E103C084EC90E064E545E40E94F0
:1004A000BC0B6091DD027091DE0286EC90E00E9450
:1004B0009C0285B18F2585B9BECE8BB183608BB987
:1004C0001092B9008FE28093B800089584EA809377
:1004D000BC008091BC0087FFFCCF8091B900887F71
:1004E000803151F08091B900887F21E030E0883080
:1004F00029F020E030E002C021E030E0C901089599
:100500008093BB0084E88093BC008091BC0087FF8F
:10051000FCCF0895009711F084EC01C084E880932B
:10052000BC008091BC0087FFFCCF8091BB00089588
:1005300084E98093BC0008951F93CF93DF93C82F65
:10054000D62F172F0E946602009721F18C2F0E9450
:1005500080028091B900887F8831F1F486E10E94A1
:1005600080028091B900887F8832B1F48D2F0E947B
:1005700080028091B900887F883271F4812F0E94B7
:1005800080028091B900887F883231F40E949802FD
:1005900081E003C08FEF01C08EEFDF91CF911F91FB
:1005A00008950F931F93CF93DF93062F8F319105FB
:1005B00028F480EC90E060E070E0F7C09C012F51DF
:1005C00030402530310520F480EC90E070E0EDC043
:1005D0009C01245230402530310538F410E0B80138
:1005E000660F771F660F771FDCC09C0129523040D1
:1005F0002530310578F410E0B801660F771F660FDB
:10060000771FC80144E0880F991F4A95E1F7682BCE
:10061000792BC7C09C012E52304025303105B0F4F3
:1006200010E0B801660F771F660F771FC80124E03E
:10063000880F991F2A95E1F7682B792B602B712B76
:1006400096E0000F111F9A95E1F7ABC09C01235370
:10065000304025303105D8F410E0B801660F771F1F
:10066000660F771FC801D4E0880F991FDA95E1F76C
:10067000682B792B602B712BC801C6E0880F991F5E
:10068000CA95E1F7682B792B102F00278AC09C01AF
:10069000285330402530310508F510E0B801660FC9
:1006A000771F660F771FC801F4E0880F991FFA952E
:1006B000E1F7682B792B602B712BC801E6E0880FDE
:1006C000991FEA95E1F7682B792B902F8827682BE3
:1006D000792B102F0027110F110F63C09C012D5390
:1006E00030402530310540F510E0B801660F771F26
:1006F000660F771FC80124E0880F991F2A95E1F73C
:10070000682B792B602B712BC801D6E0880F991FBD
:10071000DA95E1F7682B792B902F8827682B792BB6
:10072000C801982F8827990F990F682B792B102FC4
:1007300000271295107F35C09C012254304025308F
:100740003105D0F510E0B801660F771F660F771FEF
:10075000C801E4E0880F991FEA95E1F7682B792B2F
:10076000602B712BC80156E0880F991F5A95E1F74D
:10077000682B792B902F8827682B792BC801982F0D
:100780008827990F990F682B792BC801982F8827F4
:100790009295907F682B792B10E4019F102D0027F4
:1007A0001124602B712B80EC90E00E949C0282EC63
:1007B00090E060E070E0A9C19C01275430402530F2
:1007C0003105B8F582EC90E070E00E949C0210E0E8
:1007D000B801660F771F660F771FC801C4E0880F46
:1007E000991FCA95E1F7682B792B602B712BC801F3
:1007F000B6E0880F991FBA95E1F7682B792B902FF7
:100800008827682B792BC801982F8827990F990F73
:10081000682B792BC801982F88279295907F682B99
:10082000792B10E4019F102D00271124602B712BD0
:1008300031C19C012C54304025303105F0F410E0DA
:10084000E801CC0FDD1FCC0FDD1FC02BD12B82ECBC
:1008500090E0BE010E949C02B80136E0660F771F4F
:100860003A95E1F7C80124E0880F991F2A95E1F72E
:10087000682B792B902F882723C09C01215530406D
:100880002530310528F510E0E801CC0FDD1FCC0F35
:10089000DD1FC801B4E0880F991FBA95E1F7C82B96
:1008A000D92BC02BD12B82EC90E0BE010E949C0280
:1008B000702F6627C801F6E0880F991FFA95E1F7B7
:1008C000682B792BC801982F8827990F990F2AC078
:1008D0009C01265530402530310560F510E0E801D7
:1008E000CC0FDD1FCC0FDD1FC80164E0880F991FFE
:1008F0006A95E1F7C82BD92BC02BD12BC80156E044
:10090000880F991F5A95E1F7C82BD92B82EC90E0FC
:10091000BE010E949C02B801762F6627770F770FE1
:10092000902F8827682B792BC801982F88279295BC
:10093000907F31C09C012B5530402530310598F512
:1009400010E0E801CC0FDD1FCC0FDD1FC801B4E0C3
:10095000880F991FBA95E1F7C82BD92BC02BD12B43
:10096000C801A6E0880F991FAA95E1F7C82BD92BDB
:10097000902F8827C82BD92B82EC90E0BE010E94D3
:100980009C02B801762F66277295707FC801982F58
:100990008827990F990F682B792B10E4019F102D50
:1009A0000027112438C09C012056304025303105E5
:1009B000A8F510E0E801CC0FDD1FCC0FDD1FC8014A
:1009C00024E0880F991F2A95E1F7C82BD92BC02B5B
:1009D000D12BC801B6E0880F991FBA95E1F7C82B53
:1009E000D92B902F8827C82BD92BC801982F88275F
:1009F000990F990FC82BD92B82EC90E0BE010E9471
:100A00009C02B80170E4679F702D66271124102F97
:100A100000271295107F602B712B3AC085569040AD
:100A200010E085309105C8F5E801CC0FDD1FCC0F33
:100A3000DD1FC80134E0880F991F3A95E1F7C82BF4
:100A4000D92BC02BD12BC80126E0880F991F2A95DE
:100A5000E1F7C82BD92B902F8827C82BD92BC80199
:100A6000982F8827990F990FC82BD92BC801982F39
:100A700088279295907FC82BD92B82EC90E0BE01FD
:100A80000E949C02B80170E4679F702D66271124B4
:100A90006C2B7D2B80EC90E038C0E801CC0FDD1F83
:100AA000CC0FDD1FC80164E0880F991F6A95E1F73C
:100AB000C82BD92BC02BD12BC80156E0880F991F0A
:100AC0005A95E1F7C82BD92B902F8827C82BD92B03
:100AD000C801982F8827990F990FC82BD92BC801C7
:100AE000982F88279295907FC82BD92B10E4019FCF
:100AF000102D00271124C02BD12B82EC90E0BE01D9
:100B00000E949C0280EC90E0BE010E949C02DF915A
:100B1000CF911F910F9108950F931F93CF93DF9360
:100B2000062F8937910528F480EC90E060E070E0B2
:100B3000DFC08937910521F480EC90E070E0D8C0E7
:100B40008A37910539F410E0B801660F771F660FF8
:100B5000771FCAC08B37910579F410E0B801660F92
:100B6000771F660F771FC80124E0880F991F2A9509
:100B7000E1F7682B792BB8C08C379105B1F410E000
:100B8000B801660F771F660F771FC801C4E0880F92
:100B9000991FCA95E1F7682B792B602B712BB6E072
:100BA000000F111FBA95E1F79FC08D379105D9F459
:100BB00010E0B801660F771F660F771FC801F4E0D9
:100BC000880F991FFA95E1F7682B792B602B712B11
:100BD000C801E6E0880F991FEA95E1F7682B792BA9
:100BE000102F002781C08E37910509F510E0B8015C
:100BF000660F771F660F771FC80134E0880F991FB3
:100C00003A95E1F7682B792B602B712BC80126E010
:100C1000880F991F2A95E1F7682B792B902F882749
:100C2000682B792B102F0027110F110F5DC08F3704
:100C3000910541F510E0B801660F771F660F771F29
:100C4000C801A4E0880F991FAA95E1F7682B792BBA
:100C5000602B712BC801F6E0880F991FFA95E1F718
:100C6000682B792B902F8827682B792BC801982F18
:100C70008827990F990F682B792B102F0027129531
:100C8000107F32C080389105D1F510E0B801660FB1
:100C9000771F660F771FC80124E0880F991F2A95D8
:100CA000E1F7682B792B602B712BC801D6E0880FF8
:100CB000991FDA95E1F7682B792B902F8827682BFD
:100CC000792BC801982F8827990F990F682B792BBA
:100CD000C801982F88279295907F682B792B10E474
:100CE000019F102D00271124602B712B80EC90E0C8
:100CF0000E949C0282EC90E060E070E095C1813837
:100D00009105B9F582EC90E070E00E949C0210E041
:100D1000B801660F771F660F771FC80154E0880F70
:100D2000991F5A95E1F7682B792B602B712BC8011D
:100D300046E0880F991F4A95E1F7682B792B902F91
:100D40008827682B792BC801982F8827990F990F2E
:100D5000682B792BC801982F88279295907F682B54
:100D6000792B10E4019F102D00271124602B712B8B
:100D700020C182389105F1F410E0E801CC0FDD1FAD
:100D8000CC0FDD1FC02BD12B82EC90E0BE010E9466
:100D90009C02B801A6E0660F771FAA95E1F7C8018B
:100DA000F4E0880F991FFA95E1F7682B792B902FC3
:100DB000882720C08338910529F510E0E801CC0F81
:100DC000DD1FCC0FDD1FC80154E0880F991F5A9515
:100DD000E1F7C82BD92BC02BD12B82EC90E0BE01C0
:100DE0000E949C02702F6627C80136E0880F991F69
:100DF0003A95E1F7682B792BC801982F8827990F2E
:100E0000990F27C08438910561F510E0E801CC0FF7
:100E1000DD1FCC0FDD1FC801B4E0880F991FBA9504
:100E2000E1F7C82BD92BC02BD12BC801A6E0880F26
:100E3000991FAA95E1F7C82BD92B82EC90E0BE014F
:100E40000E949C02B801762F6627770F770F902FAC
:100E50008827682B792BC801982F88279295907F37
:100E60002EC08538910599F510E0E801CC0FDD1F03
:100E7000CC0FDD1FC80134E0880F991F3A95E1F7C8
:100E8000C82BD92BC02BD12BC80126E0880F991F66
:100E90002A95E1F7C82BD92B902F8827C82BD92B5F
:100EA00082EC90E0BE010E949C02B801762F66277A
:100EB0007295707FC801982F8827990F990F682B1A
:100EC000792B10E4019F102D0027112435C086389E
:100ED0009105A9F510E0E801CC0FDD1FCC0FDD1F57
:100EE000C80154E0880F991F5A95E1F7C82BD92BF8
:100EF000C02BD12BC80146E0880F991F4A95E1F716
:100F0000C82BD92B902F8827C82BD92BC801982FF5
:100F10008827990F990FC82BD92B82EC90E0BE013E
:100F20000E949C02B80170E4679F702D662711240F
:100F3000102F00271295107F602B712B38C010E006
:100F400087389105C9F5E801CC0FDD1FCC0FDD1FF7
:100F5000C801A4E0880F991FAA95E1F7C82BD92BE7
:100F6000C02BD12BC801F6E0880F991FFA95E1F745
:100F7000C82BD92B902F8827C82BD92BC801982F85
:100F80008827990F990FC82BD92BC801982F88272C
:100F90009295907FC82BD92B82EC90E0BE010E94E5
:100FA0009C02B80170E4679F702D662711246C2B9A
:100FB0007D2B80EC90E038C0E801CC0FDD1FCC0F1A
:100FC000DD1FC80134E0880F991F3A95E1F7C82B5F
:100FD000D92BC02BD12BC80126E0880F991F2A9549
:100FE000E1F7C82BD92B902F8827C82BD92BC80104
:100FF000982F8827990F990FC82BD92BC801982FA4
:1010000088279295907FC82BD92B10E4019F102D33
:1010100000271124C02BD12B82EC90E0BE010E944E
:101020009C0280EC90E0BE010E949C02DF91CF9177
:101030001F910F9108950F931F93CF93DF93C62FA6
:1010400022E08B38920728F480EC90E060E070E0BA
:101050000AC09C012B58324042E02A38340740F441
:1010600080EC90E070E00E949C0282EC90E0B6C2BE
:101070009C012551354042E02A38340738F4D0E04D
:10108000BE01660F771F660F771FE2C09C012F59C4
:10109000374042E02A38340778F4D0E0BE01660FCA
:1010A000771F660F771FCE01A4E0880F991FAA95BE
:1010B000E1F7682B792BCCC09C0129523A4042E0E1
:1010C0002A383407B0F4D0E0BE01660F771F660FF0
:1010D000771FCE01E4E0880F991FEA95E1F7682BAE
:1010E000792B6C2B7D2B56E0CC0FDD1F5A95E1F749
:1010F000AFC09C01235B3C4042E02A383407D8F45F
:10110000D0E0BE01660F771F660F771FCE0134E077
:10111000880F991F3A95E1F7682B792B6C2B7D2B63
:10112000CE0126E0880F991F2A95E1F7682B792BCD
:10113000DC2FCC278DC09C012D533F4042E02A3844
:10114000340708F5D0E0BE01660F771F660F771FE2
:10115000CE0114E0880F991F1A95E1F7682B792BBF
:101160006C2B7D2BCE01B6E0880F991FBA95E1F765
:10117000682B792B9C2F8827682B792BDC2FCC2789
:10118000DD0FDD0F65C09C01275C314142E02A384C
:10119000340740F5D0E0BE01660F771F660F771F5A
:1011A000CE0154E0880F991F5A95E1F7682B792BEF
:1011B0006C2B7D2BCE0146E0880F991F4A95E1F7F5
:1011C000682B792B9C2F8827682B792BCE01982FA1
:1011D0008827990F990F682B792BDC2FCC27D29574
:1011E000D07F36C09C012155344142E02A38340773
:1011F000A0F5D0E0BE01660F771F660F771FCE0106
:1012000014E0880F991F1A95E1F7682B792B6C2B46
:101210007D2BCE01B6E0880F991FBA95E1F7682BB8
:10122000792B9C2F8827682B792BCE01982F882724
:10123000990F990F682B792BCE01982F88279295BB
:10124000907F682B792BD0E4CD9FD02DCC27112413
:101250006C2B7D2B80EC90E006CF9C012B5D364102
:1012600042E02A383407B8F582EC90E070E00E9442
:101270009C02D0E0BE01660F771F660F771FCE017C
:1012800034E0880F991F3A95E1F7682B792B6C2B86
:101290007D2BCE0126E0880F991F2A95E1F7682B58
:1012A000792B9C2F8827682B792BCE01982F8827A4
:1012B000990F990F682B792BCE01982F882792953B
:1012C000907F682B792BD0E4CD9FD02DCC27112493
:1012D0006C2B7D2B38C19C012556394142E02A38C0
:1012E0003407F0F4D0E08E01000F111F000F111F22
:1012F0000C2B1D2B82EC90E0B8010E949C02BE01D9
:10130000E6E0660F771FEA95E1F7CE0154E0880F1B
:10131000991F5A95E1F7682B792B9C2F882724C0B9
:101320009C012F5E3B4142E02632340798F5D0E025
:101330008E01000F111F000F111FCE0124E0880F36
:10134000991F2A95E1F7082B192B0C2B1D2B82ECEA
:1013500090E0B8010E949C027C2F6627CE01B6E087
:10136000880F991FBA95E1F7682B792BCE01982F3A
:101370008827990F990F682B792BCE01982F8827F2
:101380009295907F682B792BD0E4CD9FD02DCC27E0
:10139000112498C09C0125513E4142E02A3834076F
:1013A00028F5D0E08E01000F111F000F111FCE0194
:1013B00044E0880F991F4A95E1F7082B192B0C2B55
:1013C0001D2BCE0136E0880F991F3A95E1F7082BC7
:1013D000192B82EC90E0B8010E949C02BE01762F8E
:1013E0006627770F770F9C2F8827C5CF9C012F5931
:1013F000304242E02A38340760F5D0E08E01000F19
:10140000111F000F111FCE01B4E0880F991FBA956C
:10141000E1F7082B192B0C2B1D2BCE01A6E0880F12
:10142000991FAA95E1F7082B192B9C2F8827082BC9
:10143000192B82EC90E0B8010E949C02BE01762F2D
:1014400066277295707FCE01982F8827990F990F84
:1014500099CF9C012952334242E02A383407A8F53B
:10146000D0E08E01000F111F000F111FCE0134E0DC
:10147000880F991F3A95E1F7082B192B0C2B1D2B80
:10148000CE0126E0880F991F2A95E1F7082B192B2A
:101490009C2F8827082B192BCE01982F8827990F6E
:1014A000990F082B192B82EC90E0B8010E949C0246
:1014B000BE0170E4679F702D66271124DC2FCC27B6
:1014C000D295D07F6C2B7D2B3CC09C01235B354299
:1014D00042E026323407D0F5D0E08E01000F111F14
:1014E000000F111FCE0164E0880F991F6A95E1F784
:1014F000082B192B0C2B1D2BCE0156E0880F991FA2
:101500005A95E1F7082B192B9C2F8827082B192BAC
:10151000CE01982F8827990F990F082B192BCE01F0
:10152000982F88279295907F082B192B82EC90E0BA
:10153000B8010E949C02BE0170E4679F702D66276F
:101540001124602B712B80EC90E04AC0895D97429A
:1015500022E08A389207D0F5D0E08E01000F111FEB
:10156000000F111FCE01A4E0880F991FAA95E1F783
:10157000082B192B0C2B1D2BCE01F6E0880F991F81
:10158000FA95E1F7082B192B9C2F8827082B192B8C
:10159000CE01982F8827990F990F082B192BCE0170
:1015A000982F88279295907F082B192BD0E4CD9FF8
:1015B000D02DCC2711240C2B1D2B82EC90E0B801F0
:1015C0000E949C0280EC90E0B8010AC082EC90E09E
:1015D00060E07AEA0E949C0280EC90E060E070E0BB
:1015E0000E949C02DF91CF911F910F91089580EC92
:1015F00090E065E575E50E949C0282EC90E065E56F
:1016000075E50E949C0284EC90E065E575E50E941A
:101610009C0286EC90E065E575E50E949C028FEFE8
:101620009FEBA1E281509040A040E1F700C0000094
:1016300080EC90E060E070E00E949C0282EC90E020
:1016400060E070E00E949C0284EC90E060E070E05A
:101650000E949C0286EC90E060E070E00E949C0298
:1016600008950F931F93CF93DF93C82FD62F142F76
:10167000022F0E946602009789F18C2F0E9480023F
:101680008091B900887F883159F5D23049F482E1E0
:101690000E9480028091B900887F883219F50AC0C3
:1016A000D33041F484E10E9480028091B900887FA8
:1016B0008832D1F4812F0E9480028091B900887F06
:1016C0008832A1F4802F0E9480028091B900887F27
:1016D000883271F40E94980281E00BC08FEF09C03C
:1016E0008EEF07C08DEF05C08CEF03C08BEF01C0FC
:1016F0008AEFDF91CF911F910F910895A1E0B0E0A3
:10170000E4E8FBE00C94A01C182F0E9466020097EE
:1017100031F1812F0E9480028091B900887F883149
:1017200001F581E00E9480028091B900887F8832B3
:10173000D1F40E9466020097C1F0812F81600E945F
:1017400080028091B900887F803489F480E090E045
:101750000E948A0289830E949802898109C088E0D8
:1017600007C089E005C08AE003C08BE001C08CE0BF
:101770002196E3E00C94BC1C1F93CF93DF93C82FFA
:10178000D62F142F0E946602009721F18C2F0E9401
:1017900080028091B900887F8831F1F486E10E944F
:1017A00080028091B900887F8832B1F48D2F0E9429
:1017B00080028091B900887F883271F4812F0E9465
:1017C00080028091B900887F883231F40E949802AB
:1017D00081E003C08FEF01C08EEFDF91CF911F91A9
:1017E0000895CF93DF93C62FD42F0E9466020097EF
:1017F00009F458C080EC0E9480028091B900887F73
:10180000883109F052C082E10E9480028091B900C3
:10181000887F883209F049C080E00E948002809170
:10182000B900887F883209F040C080E10E948002C0
:101830008091B900887F8832C1F580E00E948002E3
:101840008091B900887F883281F580E10E94800212
:101850008091B900887F883241F58C2F0E948002E8
:101860008091B900887F883201F58D2F0E94800217
:101870008091B900887F8832C1F48FEF0E94800286
:101880008091B900887F883281F480E00E948002D4
:101890008091B900887F883241F40E94980221E04B
:1018A00030E005C02FEF3FEF02C02EEF3FEFC90140
:1018B000DF91CF91089588E18093C90086E08093FD
:1018C000CA0085E08093CC001092CD000895282FA7
:1018D000392FF90106C09091C80095FFFCCF809385
:1018E000CE0081918823B9F70895679904C066995D
:1018F00004C080E003C081E001C082E0379B8460C7
:1019000008951F920F920FB60F920BB60F921124EB
:101910002F923F924F925F926F927F928F929F92FF
:10192000AF92BF92CF92DF92EF92FF920F931F93ED
:101930002F933F934F935F936F937F938F939F93D7
:10194000AF93BF93EF93FF93DF93CF93CDB7DEB702
:10195000E197DEBFCDBFCE0109969CA38BA31DA24C
:101960002091E0003091E100932F80E0AC01420F24
:10197000511D58AB4FA75091ED0059ABEE24FF24F9
:1019800021E0C22ED12C8E010F5E1F4F5E01089404
:10199000A11CB11C91E0892E912C8FA598A98C21B6
:1019A0009D21009709F44FC18E2D8295807F8093F1
:1019B000ED008091EE008F77883009F41AC18930EC
:1019C00050F4823009F4FAC0843009F409C181303E
:1019D00009F021C1EAC0803239F0803409F4C7C06F
:1019E000803109F018C10EC1C5010E94F00E80912E
:1019F000EF008F738093EF001092EE001DA285E838
:101A000090E09F8F8E8F1FA21EA298E09AA328E0DD
:101A100030E03D8F2C8FCE014B960E947D108823A5
:101A2000D1F785B130E2832785B989818431D9F432
:101A30004A814AA719A68B8169A57AA5680F711DED
:101A4000882777FD8095982F0E94F61925E438EDB8
:101A500040E75FE30E94CC180E94F8167093B5012E
:101A60006093B401F0C08831D9F45A815CA71BA6F9
:101A70008B816BA57CA5680F711D882777FD8095EC
:101A8000982F0E94F6192AE037ED43E25CE30E94AA
:101A9000CC180E94F8167093B7016093B601D3C0BA
:101AA0008A3109F58A818EA71DA68B816DA57EA539
:101AB000680F711D882777FD8095982F0E94F61971
:101AC00021EC39E04CE95BE30E94CC1820E030E0E7
:101AD00040E251E40E94CC180E94F8167093BB01BA
:101AE0006093BA01B0C08131F9F43A8022248B812D
:101AF000B101680F711D882777FD8095982F0E948E
:101B0000F61920E030E040E25DEB0E94CC1820E0C6
:101B100030E040EF52E40E946E180E94F816709375
:101B2000B9016093B8018FC0883359F45A804424B6
:101B30008B819201280F311D3093BD012093BC0190
:101B400082C0803459F47A8066248B81A301480FC7
:101B5000511D5093C5014093C40175C0813409F0F3
:101B600072C08B818093C6011092C7016CC08091B6
:101B7000EF008F738093EF001092EE003091DE0043
:101B8000C4010E2C02C0880F991F0A94E2F7282F77
:101B9000209523232093DE002091DF00892F8F776B
:101BA000809582238093DF004EC0C701B8014AE0D0
:101BB00050E00E94CE1C88E791E008C0C701B80140
:101BC0004AE050E00E94CE1C84E891E00E94670C3D
:101BD000C8010E94670C81E891E00E94670C33C045
:101BE000C701B8014AE050E00E94CE1C8EE891E0A7
:101BF000EDCFC701B8014AE050E00E94CE1C87E952
:101C000091E0E4CFC701B8014AE050E00E94CE1C49
:101C100082EA91E0DBCFC701B8014AE050E00E94C0
:101C2000CE1C8BEA91E00E94670CC8010E94670CF1
:101C300081E891E00E94670C8091EF008F738093A0
:101C4000EF001092EE000894E11CF11C5FE0E51635
:101C5000F10419F0CC0CDD1CA0CE9091ED0089A907
:101C6000807F892B8093ED00E196DEBFCDBFCF91C1
:101C7000DF91FF91EF91BF91AF919F918F917F91F4
:101C80006F915F914F913F912F911F910F91FF9015
:101C9000EF90DF90CF90BF90AF909F908F907F900C
:101CA0006F905F904F903F902F900F900BBE0F90D2
:101CB0000FBE0F901F9018957093F2026093F1027F
:101CC000ECEEF2E08093EC0211821092F50281E0DA
:101CD0008093F4024093F00282E090E09093EB0254
:101CE0008093EA021092F602CF0103970E947D10C2
:101CF00091E0811190E0892F0895CF93DF93EC015B
:101D00006B831C821C861B864F8388E090E09A833D
:101D10008983CE010E947D108823D9F7DF91CF916E
:101D20000895EF92FF921F93DF93CF930F92CDB759
:101D3000DEB77C01FC011486138688E090E0928374
:101D4000818310E008C0C70169830E947D1069810A
:101D5000882329F41F5F1617B0F380E001C08FEFCE
:101D60000F90CF91DF911F91FF90EF90089580E049
:101D7000982F9295907F9093ED00EEEEF0E0119207
:101D8000E83FF105E1F78F5F8F3091F708952091DB
:101D9000ED0080E0982F9295907F9093ED009091C8
:101DA000EF00907C19F42093ED0008958F5F8F3041
:101DB00089F72093ED008FEF08958091EF00807CEC
:101DC00069F09091EE00892F807E803241F080345E
:101DD00031F0803A21F0892F8F7108958FEF0895A7
:101DE00060E007C02091FA00480F591FFA012083D4
:101DF0006F5F2091EF00462F50E030E02F70307081
:101E0000421753077CF30895A0E0B0E0EAE0FFE05A
:101E10000C949B1C882309F450C08091E2008E77BB
:101E200051F0C091E200D0E0CE77D070D595C79543
:101E3000CC2EC39402C0CC24C3948091E3008E7056
:101E400049F0A091E300B0E0AE70B070B595A795F1
:101E5000AF5F01C0A1E08091E4008E70833048F054
:101E6000E091E400F0E0EE70F070F595E795EF5F3B
:101E700001C0E2E08091E4008077813168F08091D8
:101E8000E40090E080779070D4E095958795DA959E
:101E9000E1F7F82FFF5F01C0F2E08A2F90E08E0F8C
:101EA000911D8F0F911D8830910584F0BA2FBF5F6F
:101EB000BE0FBF0F60E071E00CC061E070E0F2E0C7
:101EC000E2E0B8E0A3E0CC24C39403C060E071E09A
:101ED000B8E020E0822F8295807F8093ED008EEE27
:101EE00090E0EC011992CE01C83FD105D1F72F5FE8
:101EF0002F3081F7D62FF72E40E050E0EE2400E897
:101F00001AE0DD24DA9401C0FF24D13009F07BC04F
:101F1000D093D8004F5F5F4F8C2D8150880F8093F6
:101F2000E2002F2F269530E021503040C5E0220FEF
:101F3000331FCA95E1F78A2F90E00197880F991F08
:101F4000822B8093E3002F2F30E021503040C4E0FB
:101F5000220F331FCA95E1F78E2F90E00197880F6B
:101F6000991F822B81608093E400CA0123E096953B
:101F700087952A95E1F78093E5001092ED00109285
:101F8000EE000093EF001093D8008091D90082FFFB
:101F9000FCCFD092DA00EE2436C08091EE0090E0C3
:101FA00085FF0DC08091EF008F738093EF0010923A
:101FB000D8008091D90082FDFCCF81E07DC08F7177
:101FC0009070009719F0FF24F39460E08091DA009C
:101FD00090E085FF12C0EE2041F42091DA002062EB
:101FE0002093DA00EE24E39408C02091DA00206206
:101FF0002093DA00FF24F39460E08F7090700097D4
:1020000011F0D1E003C0613041F251C07111EF5FB6
:10201000E930D8F0F830D8F0B93119F0BF5FE2E01C
:1020200021C08C2D803421F0C394E2E0B8E01AC0C6
:102030008091EF008F738093EF001092D800809111
:10204000D90082FDFCCF80E037C0E63058F02E2F5B
:1020500030E08F2F90E001968217930724F4FF5F02
:10206000EF2F01C0FE2FAF2FAE0FA095AB0F8A2F21
:102070008150883060F66F2F70E08E2F90E00196CF
:102080008A0F911D9B01220F331F220F331F281728
:1020900039070CF4BCCF9B01220F331F260F371FCB
:1020A000821793070CF4B3CF61E071E02DCFCF2DF1
:1020B000C13009F029CFAACFCDB7DEB7E8E00C9444
:1020C000B71C81E08093D80086E08093E200809383
:1020D000E30084E28093E40081E008950E946110AF
:1020E000882349F00E94B70E8091D80082608093C7
:1020F000D80081E0089580E00895A4E0B0E0E3E82E
:10210000F0E10C949F1C8C01DC0111968D919C9147
:1021100012978C309105A1F41A968C911A978036FB
:1021200009F048C58C918295807F8093ED00809165
:10213000EF008F738093EF001092EE001C923AC56F
:102140000E94C70E8F3F09F438C590E6D8011A9651
:102150009C931A978C93982F9295907F9093ED0073
:10216000EEEEF0E01192E83FF105E1F7D8011196AB
:10217000ED91FC9112973197EB30F10508F01AC5FB
:10218000E65BFF4F0C94C81C80E01EC4F8018485F8
:10219000882359F185818295869587709681990F5C
:1021A000990F990F890F8093F3008481829586950A
:1021B00087709581990F990F990F890F8093F2007D
:1021C00083818295869587709481990F990F990FD5
:1021D000890F8093F1008381880F880F880F809387
:1021E000F0008091EF0080611BC0D80113968C91A4
:1021F000139786958695869514969C91149792953B
:10220000990F907E890F8093F30013968C9113970A
:102210008295880F807E8093F2008091EF008F7E00
:102220008093EF0080E00BC0D8011896ED91FC91EF
:102230001997E80FF11D90819093FA008F5FF801D4
:102240009781891788F38385882321F08091F00096
:10225000846003C08091F0008B7F8093F0008091B8
:10226000EF00D80117969C911797892B8093EF0068
:102270008091EF008F738093EF008091EF00806476
:102280008093EF00A1C4F8019485992359F19581B9
:102290009295969597702681220F220F220F920F0A
:1022A0009093F30094819295969597702581220FD3
:1022B000220F220F920F9093F200938192959695A0
:1022C00097702481220F220F220F920F9093F1001A
:1022D0009381990F990F990F9093F0009091EF00CF
:1022E00090611BC0D80113969C9113979695969573
:1022F000969514962C9114972295220F207E920F7A
:102300009093F30013969C9113979295990F907E5A
:102310009093F2009091EF009F7E9093EF0090E0F9
:102320000BC0D8011896ED91FC911997E90FF11D9A
:1023300020812093FA009F5FF8012781921788F38C
:1023400013869091F0009B7F9093F0009091EF00A6
:102350002781922B9093EF009091EF009F739093C1
:10236000EF009091EF0090649093EF009585992392
:1023700009F02AC467C2D8011C968C911C97882347
:10238000C9F115968C91159782958695877016964A
:102390009C911697990F990F990F890F8093F300CD
:1023A00014968C91149782958695877015969C91BA
:1023B0001597990F990F990F890F8093F200139633
:1023C0008C91139782958695877014969C9114979B
:1023D000990F990F990F890F8093F10013968C91A3
:1023E0001397880F880F880F8093F0008091EF007B
:1023F000806115C0F80183818695869586959481C4
:102400009295990F907E890F8093F3008381829536
:10241000880F807E8093F2008091EF008F7E809302
:10242000EF0081E0D8011B968C931B978091F00000
:1024300084608093F0008091EF0014CF19821A829B
:102440001B821C82FE0131968B8182958695877056
:102450009381990F990F990F890F8093F7008181CC
:102460008295869587709B81990F990F990F890F97
:102470008093F6008181880F880F880F998192954B
:1024800096959770890F8093F5008981880F880F42
:10249000880F8093F4008091EF00F8019781892BD9
:1024A0008093EF008091F4008B7F8093F40043C011
:1024B00019821A821B821C82FE0131968B818295C1
:1024C000869587709381990F990F990F890F809343
:1024D000F70081818295869587709B81990F990F6E
:1024E000990F890F8093F6008181880F880F880FDC
:1024F0009981929596959770890F8093F5008981BF
:10250000880F880F880F8093F4008091EF00D80126
:1025100017969C911797892B8093EF001B961C921E
:102520001B978091F40084608093F4008091F00008
:102530008B7F8093F0008091F4008E7F8093F40075
:102540008091EF008F738093EF008091EF0080689F
:1025500097CE19821A821B821C82FE0131968B81D2
:102560008295869587709381990F990F990F890F9E
:102570008093F70081818295869587709B81990F62
:10258000990F990F890F8093F6008181880F880F2A
:10259000880F9981929596959770890F8093F50091
:1025A0008981880F880F880F8093F4008091EF0055
:1025B000F8019781892B8093EF0081E083878091D8
:1025C000F40084608093F4008091F0008460809334
:1025D000F0008091EF008F7D42C2D8011C968C9153
:1025E0001C978823C9F115968C911597829586952D
:1025F000877016969C911697990F990F990F890FCE
:102600008093F30014968C91149782958695877029
:1026100015969C911597990F990F990F890F809393
:10262000F20013968C911397829586958770149675
:102630009C911497990F990F990F890F8093F1002E
:1026400013968C911397880F880F880F8093F00052
:102650008091EF00806115C0F80183818695869591
:10266000869594819295990F907E890F8093F300BF
:1026700083818295880F807E8093F2008091EF00A5
:102680008F7E8093EF008FEF9FEFDC0189839A8329
:10269000AB83BC83FE0131968B81829586958770D2
:1026A0009381990F990F990F890F8093F70081817A
:1026B0008295869587709B81990F990F990F890F45
:1026C0008093F6008181880F880F880F99819295F9
:1026D00096959770890F8093F5008981880F880FF0
:1026E000880F8093F4008091EF00D80117969C9199
:1026F0001797892B8093EF008091F4008B7F809354
:10270000F4008091F400816019CFF8019485992339
:1027100059F195819295969597702681220F220FF7
:10272000220F920F9093F300948192959695977053
:102730002581220F220F220F920F9093F200938196
:102740009295969597702481220F220F220F920F57
:102750009093F1009381990F990F990F9093F00046
:102760009091EF0090611BC0D80113969C91139734
:1027700096959695969514962C9114972295220FDE
:10278000207E920F9093F30013969C91139792954D
:10279000990F907E9093F2009091EF009F7E90931E
:1027A000EF002FEF3FEFA90129833A834B835C832E
:1027B000FE0131969B819295969597702381220F09
:1027C000220F220F920F9093F70091819295969588
:1027D00097702B81220F220F220F920F9093F600F9
:1027E0009181990F990F990F29812295269527702C
:1027F000920F9093F5009981990F990F990F9093EB
:10280000F4009091EF00F8012781922B9093EF0054
:1028100013869091F40094609093F4009091F000EE
:102820009B7F9093F0009091F40091609093F4005E
:102830009091EF009F739093EF009091EF0090685C
:102840009093EF009091DE0021E030E002C0220F73
:10285000331F8A95E2F7922B9093DE009091DF0070
:10286000832F8F77892B8093DF00AEC1D8011C9610
:102870008C911C978823C9F115968C911597829598
:102880008695877016969C911697990F990F990FB8
:10289000890F8093F30014968C91149782958695F6
:1028A000877015969C911597990F990F990F890F1D
:1028B0008093F20013968C9113978295869587707A
:1028C00014969C911497990F990F990F890F8093E3
:1028D000F10013968C911397880F880F880F8093BF
:1028E000F0008091EF00806115C0F801838186952A
:1028F0008695869594819295990F907E890F809305
:10290000F30083818295880F807E8093F20080910E
:10291000EF008F7E8093EF008FEF9FEFDC018983C4
:102920009A83AB83BC83FE0131968B818295869519
:1029300087709381990F990F990F890F8093F700F2
:1029400081818295869587709B81990F990F990F48
:10295000890F8093F6008181880F880F880F9981F5
:10296000929596959770890F8093F5008981880FCD
:10297000880F880F8093F4008091EF00D80117969C
:102980009C911797892B8093EF0081E01B968C9385
:102990001B978091F40084608093F4008091F00094
:1029A00084608093F0008091EF008F7D8093EF0032
:1029B000A8CED8011896ED91FC911997E80FF11D5A
:1029C00090819093FA008F5FF8019781891788F3BF
:1029D00019821A821B821C82FE0131968B8182959C
:1029E000869587709381990F990F990F890F80931E
:1029F000F70081818295869587709B81990F990F49
:102A0000990F890F8093F6008181880F880F880FB6
:102A10009981929596959770890F8093F500898199
:102A2000880F880F880F8093F4008091EF00D80101
:102A300017969C911797892B8093EF0081E01B9646
:102A40008C931B978091F40084608093F4008091B4
:102A5000F00084608093F0008091EF0080628093AA
:102A6000EF0069CDF8018485882359F1858182952D
:102A7000869587709681990F990F990F890F80938A
:102A8000F30084818295869587709581990F990FBF
:102A9000990F890F8093F2008381829586958770C4
:102AA0009481990F990F990F890F8093F100838179
:102AB000880F880F880F8093F0008091EF0080616D
:102AC0001BC0D80113968C91139786958695869591
:102AD00014969C9114979295990F907E890F8093EC
:102AE000F30013968C9113978295880F807E8093C4
:102AF000F2008091EF008F7E8093EF0080E00BC0AA
:102B0000D8011896ED91FC911997E80FF11D90816D
:102B10009093FA008F5FF8019781891788F38FEF00
:102B20009FEFDC0189839A83AB83BC83FE013196DE
:102B30008B818295869587709381990F990F990F54
:102B4000890F8093F70081818295869587709B819C
:102B5000990F990F990F890F8093F6008181880F43
:102B6000880F880F9981929596959770890F809319
:102B7000F5008981880F880F880F8093F400809179
:102B8000EF00D80117969C911797892B8093EF003F
:102B900081E01B968C931B978091F4008460809356
:102BA000F4008091F00084608093F0008091EF0049
:102BB0008062FCCEF801128607C08FE1D8011A9618
:102BC0008C931A978FEF01C080E02496E4E00C9478
:102BD000BB1C1F93CF93DF93EC018A85882309F4F4
:102BE00082C08F3109F47FC08F3F09F47CC0888197
:102BF0008295807F8093ED000E94DD0E182F803239
:102C000061F0813220F4882309F46FC064C08034FD
:102C100009F457C0803A09F05EC08091EF008F70D0
:102C20008F83888599850E94F00E2091F00030E016
:102C30002470307035952795359527952B87809191
:102C4000EF0084FF2BC081E08C878091F300869594
:102C5000869586958E839091F2008091F3008295FF
:102C6000880F807E969596959695890F8D83909185
:102C7000F1008091F2008295880F807E969596955E
:102C80009695890F8C839091F0008091F100829548
:102C9000880F807E96959695969511C01C8680919A
:102CA000F3008295869587708C839091F2008091D5
:102CB000F300880F880F880F929596959770890F6B
:102CC0008B831A878091EF008F738093EF001092AF
:102CD000EE0080E00BC01A878091EF008F73809325
:102CE000EF001092EE0082E001C081E0DF91CF9111
:102CF0001F9108951F920F920FB60F920BB60F926D
:102D000011242F933F934F935F936F937F938F93F0
:102D10009F93AF93BF93EF93FF9388EC91E00E9452
:102D2000670C8091C6019091C70101969093C701ED
:102D30008093C60181E090E09093BF018093BE0133
:102D4000379904C09093C3018093C201FF91EF9122
:102D5000BF91AF919F918F917F916F915F914F91B3
:102D60003F912F910F900BBE0F900FBE0F901F90B1
:102D700018951F920F920FB60F920BB60F92112457
:102D80002F933F934F935F936F937F938F939F9373
:102D9000AF93BF93EF93FF938CEC91E00E94670C8D
:102DA0008091C6019091C70101979093C7018093CC
:102DB000C60181E090E09093C1018093C0013799F2
:102DC00004C09093C3018093C201FF91EF91BF9122
:102DD000AF919F918F917F916F915F914F913F91B3
:102DE0002F910F900BBE0F900FBE0F901F90189554
:102DF000EF92FF920F931F937B018C0120E030E054
:102E000040E05FE40E94C61987FD11C0C801B70108
:102E100020E030E040E05FE40E949B180E94561AD8
:102E20009B01AC01205030404040504806C0C801D2
:102E3000B7010E94561A9B01AC01B901CA011F914A
:102E40000F91FF90EF900895A0E0B0E0EAE2F7E183
:102E50000C94951CFC01EA018081823008F438C191
:102E6000DB019C91923008F430C1843059F49430E5
:102E700009F02EC1918111968C911197981709F044
:102E800021C126C1943009F420C19230B1F48230BE
:102E900009F01EC1CA01AF0128E0DA010D90AD01B1
:102EA000DC010D92CD012150C1F7DB0111968C910F
:102EB00011979181892389830AC1823009F405C160
:102EC000C280D380DB0112966D907C901397248191
:102ED0003581468157811496ED90FD900D911C919E
:102EE0001797C601861997095C0197FF04C0AA24A9
:102EF000BB24A81AB90AB0E2AB16B1040CF061C049
:102F0000181619066CF5370148010A2C04C096946E
:102F10008794779467940A94D2F781E090E0A0E0D8
:102F2000B0E00A2C04C0880F991FAA1FBB1F0A9487
:102F3000D2F70197A109B1098E219F21A023B123C6
:102F4000EE24FF248701E3940097A105B10519F44D
:102F5000EE24FF248701E628F728082919293CC018
:102F60000097D1F1CA0CDB1C39014A010A2C04C0BC
:102F700096948794779467940A94D2F781E090E0CE
:102F8000A0E0B0E00A2C04C0880F991FAA1FBB1F45
:102F90000A94D2F70197A109B10982239323A423AC
:102FA000B52321E030E040E050E00097A105B105F5
:102FB00019F420E030E0A9012629372948295929A8
:102FC0000BC06C147D0424F4EE24FF24870104C09C
:102FD000630120E030E0A9018181FB019181891723
:102FE00009F445C0882349F0D801C701821B930B1F
:102FF000A40BB50B9C01AD0104C02E193F09400B79
:10300000510B57FD04C01982DB82CA820BC081E0DC
:103010008983DB82CA8250954095309521953F4F38
:103020004F4F5F4F2C833D834E835F830DC0880FCE
:10303000991FAA1FBB1F8C839D83AE83BF838A8188
:103040009B8101979B838A838C819D81AE81BF8107
:103050009C01AD0121503040404050402F3FEFEFE8
:103060003E07EFEF4E07EFE35E0708F30BC08983DF
:10307000DB82CA822E0D3F1D401F511F2C833D83D2
:103080004E835F8383E088832C813D814E815F8105
:1030900057FF1DC0DA01C90181709070A070B07037
:1030A0005695479537952795822B932BA42BB52BB7
:1030B0008C839D83AE83BF838A819B8101969B8392
:1030C0008A8305C0E0EDF1E003C0FB0101C0FE0111
:1030D000CF01CDB7DEB7EEE00C94B11CA0E2B0E0BA
:1030E000E4E7F8E10C949D1C69837A838B839C83CD
:1030F0002D833E834F83588789E0E82EF12CEC0E18
:10310000FD1ECE010196B7010E94CF1B8E010F5EFE
:103110001F4FCE010596B8010E94CF1BC701B80111
:10312000AE01475E5F4F0E9424170E94021BA096CB
:10313000E6E00C94B91CA0E2B0E0E1EAF8E10C94FE
:103140009D1C69837A838B839C832D833E834F836D
:1031500058878E01075F1F4FCE010196B8010E946C
:10316000CF1B91E1E92EF12CEC0EFD1ECE01059650
:10317000B7010E94CF1B8A8991E089278A8BC801F9
:10318000B701AE01475E5F4F0E9424170E94021BE9
:10319000A096E6E00C94B91CA0E2B0E0E2EDF8E104
:1031A0000C94911C69837A838B839C832D833E834B
:1031B0004F835887CE010196BE01675F7F4F0E9403
:1031C000CF1BCE010596BE016F5E7F4F0E94CF1BC5
:1031D0009985923078F089898230C0F0943019F462
:1031E000823041F4CBC0843019F4923079F4C6C0F7
:1031F000923051F481E02A859A89291709F480E0F8
:103200008A87CE010996BCC0823051F481E02A85BC
:103210009A89291709F480E08A8BCE014196B0C0C3
:103220006D847E848F849888ED88FE880F89188D40
:10323000E0E2F0E080E090E0DC01AA24BB2465013C
:1032400020E030E0A901B301617070706115710573
:10325000D1F02E0D3F1D401F511F15012601280ED4
:10326000391E4A1E5B1E81E090E0A0E0B0E02E1502
:103270003F054007510718F080E090E0DC01820D27
:10328000931DA41DB51DAA0CBB1CCC1CDD1C17FF77
:1032900009C061E0262E312C412C512CA228B328E4
:1032A000C428D528319749F0EE0CFF1C001F111FD0
:1032B0009694879477946794C6CF6B897C89EB85C5
:1032C000FC856E0F7F1F6E5F7F4F7C8F6B8F61E081
:1032D000EA857A89E71709F460E06A8F6B8D7C8D47
:1032E00010C0FC01E170F070309729F056954795B9
:1032F000379527955068B695A795979587956F5FF1
:103300007F4FB7FDEECF0CC0880F991FAA1FBB1FC0
:1033100057FD8160220F331F441F551F61507040BD
:103320008030E0E09E07E0E0AE07E0E4BE0760F337
:103330006B8F7C8F6FE7E62EF12C012D112DE8228B
:10334000F9220A231B2360E4E616F10401051105A6
:1033500061F487FD0AC0211531054105510529F0A9
:10336000805C9F4FAF4FBF4F80788D8F9E8FAF8F08
:10337000B8A383E0898FCE01499602C080ED91E029
:103380000E94021BA096E2E10C94AD1CA8E1B0E003
:10339000ECECF9E10C949D1C69837A838B839C830C
:1033A0002D833E834F8358878E01075F1F4FCE01C9
:1033B0000196B8010E94CF1B81E1E82EF12CEC0EA2
:1033C000FD1ECE010596B7010E94CF1B8985823074
:1033D00040F08989823028F0C801B7010E94381C6A
:1033E00001C08FEF6896E6E00C94B91CA8E0B0E04D
:1033F000ECEFF9E10C949D1C7B018C0183E0898347
:10340000D801C7018827B7FD83959927AA27BB272D
:10341000282F8A83E114F1040105110519F482E0D3
:10342000898337C08EE190E09C838B83222389F0CF
:1034300080E0E81680E0F80680E0080780E81807DA
:1034400069F110950095F094E094E11CF11C011DC8
:10345000111DED82FE820F831887C801B7010E94FB
:10346000A81A9C01215030401216130694F4022E23
:1034700004C0EE0CFF1C001F111F0A94D2F7ED824E
:10348000FE820F8318878EE190E0821B930B9C8352
:103490008B83CE0101960E94021B04C060E070E0A5
:1034A00080E09FEC2896E6E00C94B91CACE0B0E01C
:1034B000ECE5FAE10C94A11C69837A838B839C83ED
:1034C000CE010196BE016B5F7F4F0E94CF1B8D81A5
:1034D000823081F1823070F1843021F48E81882332
:1034E00069F10AC02F81388537FD24C06E812F31E4
:1034F00031053CF0662311F120E030E040E050E877
:1035000021C08EE190E0821B930B29853A854B8583
:103510005C8504C056954795379527958A95D2F7CF
:10352000662381F050954095309521953F4F4F4F40
:103530005F4F08C020E030E0A90104C02FEF3FEF4B
:103540004FEF5FE7B901CA012C96E2E00C94BD1C75
:10355000AF92BF92CF92DF92EF92FF920F931F93A1
:103560007B018C0180E0E81680E0F80681E0080726
:1035700080E0180758F4EFEFEE16F104010511058D
:1035800009F090F480E090E0DC0117C0F0E0EF1665
:10359000F0E0FF06F0E00F07F1E01F0750F480E1D4
:1035A00090E0A0E0B0E009C088E090E0A0E0B0E0EA
:1035B00004C088E190E0A0E0B0E020E230E040E02C
:1035C00050E0281B390B4A0B5B0B5701680104C004
:1035D000D694C794B794A7948A95D2F7D601C5011B
:1035E00088529E4FFC018081281B310941095109F5
:1035F000C9011F910F91FF90EF90DF90CF90BF9086
:10360000AF900895EF92FF920F931F93CF93DF93A4
:10361000FC0124813581468157816181808182301E
:1036200020F44061EFEFF0E0A3C0843009F49BC0C8
:10363000823009F492C0211531054105510509F484
:103640008FC00280F381E02D7FEFE238F7070CF0A6
:103650005AC0C2E8DFEFCE1BDF0BCA31D1056CF5D3
:1036600079018A010C2E04C016950795F794E7940A
:103670000A94D2F781E090E0A0E0B0E00C2E04C004
:10368000880F991FAA1FBB1F0A94D2F70197A1099F
:10369000B10982239323A423B52321E030E040E045
:1036A00050E00097A105B10519F420E030E0A90130
:1036B0002E293F29402B512B03C020E030E0A901E7
:1036C000DA01C9018F779070A070B07080349105D5
:1036D000A105B10539F427FF09C0205C3F4F4F4FCA
:1036E0005F4F04C0215C3F4F4F4F5F4FE1E0F0E080
:1036F000203080E0380780E0480780E4580728F54C
:10370000E0E0F0E022C0E038F1056CF5E158FF4F51
:10371000DA01C9018F779070A070B0708034910584
:10372000A105B10539F427FF09C0205C3F4F4F4F79
:103730005F4F04C0215C3F4F4F4F5F4F57FF05C0A5
:103740005695479537952795319687E05695479535
:10375000379527958A95D1F70BC0E0E0F0E005C0DA
:10376000E0E0F0E005C0EFEFF0E020E030E0A9019C
:103770008E2F879588278795942F9F776795662743
:103780006795E695A92FA82BFE2FF62B622F732F96
:103790008A2F9F2FCDB7DEB7E6E00C94B91CDC0171
:1037A000FB012C9111963C91119712968C911297D6
:1037B000482F4F7750E0982F991F9927991F1396FC
:1037C0006C911397862F880F892B90E0661F6627D0
:1037D000661F6183009739F52115310541055105B3
:1037E00011F482E029C082E89FEF9383828367E02F
:1037F000220F331F441F551F6A95D1F783E0808342
:1038000009C0220F331F441F551F828193810197E6
:1038100093838283203080E0380780E0480780E48B
:10382000580778F320C08F3F910579F421153105B1
:103830004105510519F484E08083089544FF03C0D5
:1038400081E0808310C010820EC08F579040938318
:10385000828383E0808387E0220F331F441F551F3C
:103860008A95D1F75064248335834683578308951E
:10387000FC01DB019081923008F449C08C918230C8
:1038800008F445C0943051F461818430B1F511964B
:103890002C91119730E0261B310941C0843021F072
:1038A000923041F48230B1F111968C9111978823B6
:1038B000A1F12DC06181823001F111968C91119797
:1038C0006817D9F42281338112968D919C911397B8
:1038D0008217930794F028173907BCF024813581AB
:1038E0004681578114968D919D910D90BC91A02D8C
:1038F00082179307A407B50718F4662341F00DC09B
:10390000281739074A075B0728F4662331F021E0BE
:1039100030E005C020E030E002C02FEF3FEFC901EA
:1039200008952F923F924F925F926F927F928F9263
:103930009F92AF92BF92CF92DF92EF92FF920F933E
:103940001F93CF93DF93CDB7DEB7CA1BDB0B0FB648
:10395000F894DEBF0FBECDBF09942A883988488805
:103960005F846E847D848C849B84AA84B984C8849B
:10397000DF80EE80FD800C811B81AA81B981CE0F92
:10398000D11D0FB6F894DEBF0FBECDBFED01089577
:10399000EE0FFF1F0590F491E02D0994FB019F01AC
:1039A000E8944230C4F04532B4F44A3029F497FB2D
:1039B0001EF4909581959F4F642F77270E94FF1CDE
:1039C000805D8A330CF0895D8193CB010097A1F76C
:1039D00016F45DE251931082C9010C94EF1CDC01D6
:1039E000FC01672F71917723E1F7329704C07C9136
:1039F0006D9370836291AE17BF07C8F30895AA1B39
:103A0000BB1B51E107C0AA1FBB1FA617B70710F0C9
:103A1000A61BB70B881F991F5A95A9F780959095FB
:0A3A2000BC01CD010895F894FFCF1A
:103A2A005541525420696E697469616C697A65649A
:103A3A000A0D0054574920696E697469616C697A84
:103A4A0065640A0D00496E7465727275707420653A
:103A5A006E61626C65640A0D00436F6E6669672069
:103A6A0033206D61696C626F78657320666F7220AE
:103A7A0072706D5F6D736769642E2E2E0A0D005386
:103A8A005543434553530A0D004641494C0A0D001C
:103A9A00426565700A0D000341434B5F455252204F
:103AAA00000A0D00464F524D5F45525220004352C4
:103ABA00435F455252200053545546465F45525281
:103ACA0020004249545F45525220004465666175A0
:103ADA006C742000000000000000000000000000DC
:103AEA000000000000000A00440A0D00480A0D0008
:103AFA0000000000000000000001020203030303AB
:103B0A000404040404040404050505050505050563
:103B1A000505050505050505060606060606060643
:103B2A00060606060606060606060606060606062B
:103B3A000606060606060606070707070707070713
:103B4A0007070707070707070707070707070707FB
:103B5A0007070707070707070707070707070707EB
:103B6A0007070707070707070707070707070707DB
:103B7A0007070707070707070808080808080808C3
:103B8A0008080808080808080808080808080808AB
:103B9A00080808080808080808080808080808089B
:103BAA00080808080808080808080808080808088B
:103BBA00080808080808080808080808080808087B
:103BCA00080808080808080808080808080808086B
:103BDA00080808080808080808080808080808085B
:103BEA00080808080808080808080808080808084B
:083BFA00080808080808080883
:00000001FF
