:100000000C944A000C9469000C9469000C946900EB
:100010000C9469000C9469000C9469000C946900BC
:100020000C9469000C94930A0C9469000C94690078
:100030000C9469000C9469000C9469000C9469009C
:100040000C9469000C9469000C948A000C9469006B
:100050000C9469000C9469000C9469000C9469007C
:100060000C9469000C9469000C9469000C9469006C
:100070000C9469000C9469000C9469000C9469005C
:100080000C9469000C9469000C9469000C9469004C
:100090000C94690011241FBECFEFD0E1DEBFCDBFAD
:1000A00011E0A0E0B1E0E6E9F6E100E00BBF02C03C
:1000B00007900D92A83FB107D9F712E0A8EFB1E081
:1000C00001C01D92AA31B107E1F70E9406010C940C
:1000D000490B0C9400008F70806480937C0087E84B
:1000E00080937A0080917A00806480937A00809176
:1000F0007A0086FDFCCF209178004091790030E0B5
:10010000942F80E0282B392B369527953695279507
:10011000C90108951F920F920FB60F9211248F9369
:1001200082B1805882B98F910F900FBE0F901F90AF
:100130001895BF92CF92DF92EF92FF920F931F9389
:10014000CF93DF9387E092E09093030280930202C3
:1001500061E4B62E57E8C52E48E0D42E30E8E32EF1
:10016000F12C04E010E08091F80180930702865F93
:1001700080930802865F80930902865F80930A025B
:10018000865F80930B02865F80930C02865F80936C
:100190000D02B0927C00C0927A0080917A00806457
:1001A00080937A0080917A0086FDFCCF8091780060
:1001B0002091790090E0D22FC0E08C2B9D2B96955A
:1001C00087959695879580930E0210920602D0929D
:1001D0000102F092FE01E092FD011093FC010093F8
:1001E000FB018AEF91E00E9442048823D1F78AEF55
:1001F00091E00E94AF038130D1F382B1805882B97F
:100200008091F8018F5F8093F801ADCF80E88093F3
:1002100061001092610080E00E9473098FEF81B944
:1002200082B98AB95E9A78948093DE008093DF0069
:100230008091DB0080688093DB008091DB0080622E
:100240008093DB008091DB0080618093DB000E9463
:100250009900FFCF982F80917A008F7780937A0052
:1002600080917A00877F80937A0080917A00806104
:1002700080937A00913051F0913020F0933079F0F2
:1002800020E013C080917C008F730CC080917C00B3
:100290008F7780937C0080917C00806403C0809184
:1002A0007C00806C80937C0021E0662341F061300B
:1002B00011F090E00AC080917C00806203C08091C0
:1002C0007C008F7D80937C0091E080917C00807E1B
:1002D00080937C0080917C00842B80937C008091B3
:1002E0007A00887F80937A0080917A00866080937C
:1002F0007A00892F822B089591B321E030E002C06B
:10030000220F331F8A95E2F7822F8095982391BBA5
:1003100090B3892380BB80917E00282B20937E00A0
:1003200080917A00806880937A0080917C00807C44
:10033000803C49F480E090E00000000001962FE747
:10034000803E9207C9F780917A008F7D80937A0072
:1003500080917A00806480937A0080917A0084FF93
:10036000FCCF80917A00806180937A0040E020E0A9
:1003700030E080917A008F7D80937A0080917A00BE
:10038000806480937A0080917A0084FFFCCF809112
:10039000780090917900280F391F80917A00806150
:1003A00080937A004F5F403121F780917A008F77F8
:1003B00080937A0084E0369527958A95E1F7C90104
:1003C000089590E0892F8295807F8093ED00EEEE76
:1003D000F0E01192E83FF105E1F79F5F9F3091F760
:1003E00008952091ED0090E0892F8295807F809381
:1003F000ED008091EF00807C19F42093ED0006C0A1
:100400009F5F9F3089F72093ED009FEF892F08951C
:100410008091EF00807C11F48FEF08959091EE00B1
:10042000892F807E803231F0803421F0803A11F0C3
:10043000892F8F710895AC0120E006C08091FA00E9
:10044000E40FF51F80832F5F8091EF00E22FF0E033
:1004500090E08F709070E817F90784F308959F92E9
:10046000AF92BF92CF92DF92EF92FF920F931F93C2
:10047000882361F4DD24D394B3E0A8E062E072E065
:1004800050E011E040E0FF24F39454C08091E2007A
:100490008E7719F4DD24D39409C08091E20090E0B6
:1004A0008E77907095958795D82ED3948091E300A0
:1004B0008E7011F4B1E009C08091E30090E08E707D
:1004C000907095958795B82FBF5F8091E4008E70EE
:1004D000833010F462E009C08091E40090E08E70F7
:1004E000907095958795682F6F5F8091E400807775
:1004F000813110F472E00CC08091E40090E08077CC
:10050000907024E0959587952A95E1F7782F7F5F85
:100510008B2F90E0860F911D870F911D089714F483
:10052000A8E004C0AB2FAF5FA60FA70F51E010E00B
:1005300041E0FF2490E0892F8295807F8093ED0039
:10054000EEEEF0E01192E83FF105E1F79F5F9F309A
:1005500091F7EE24E0E0F0E0CC2490E8A92E8AE0C8
:10056000982EBB24BA9481E0F81609F043C0F092AB
:10057000D80031968D2D8150880F8093E200272F6F
:10058000269530E02150304005E0220F331F0A95B8
:10059000E1F78B2F90E00197880F991F282B20936C
:1005A000E300272F30E02150304004E0220F331FBA
:1005B0000A95E1F7862F90E00197880F991F282B65
:1005C00021602093E400CF0123E0969587952A953A
:1005D000E1F78093E5001092ED001092EE00A092FA
:1005E000EF009092D8008091D90082FFFCCFB092AA
:1005F000DA00EE2401E03AC08091EE0090E085FF41
:1006000010C08091EF008F738093EF001092D8009C
:100610008091D90082FDFCCF00E010E0CC24C3948F
:1006200081C08F719070892B11F010E041E08091B2
:10063000DA00282F30E085FF11C0EE2041F48091D0
:10064000DA0080628093DA00EE24E39407C08091A0
:10065000DA0080628093DA0010E041E02F703070A1
:10066000232B21F010E0FF24F39403C0113021F27A
:1006700056C051116F5F6930F8F07830E8F0A93159
:1006800011F0AF5F05C080E4D81621F0D394A8E044
:1006900062E014C08091EF008F738093EF0010929E
:1006A000D8008091D90082FDFCCFA8E062E072E022
:1006B00050E000E0CC2436C0663010F4762F0AC03B
:1006C000262F30E0872F90E001968217930714F4CD
:1006D0007F5F672FB72FB60FB095BA0F8B2F815062
:1006E000883040F6472F50E0262F30E02F5F3F4FF5
:1006F0002B0F311DCA01880F991F880F991F821770
:1007000093070CF4B7CFCA01880F991F840F951F68
:10071000281739070CF4AECF51E011E003C0413087
:1007200009F4A7CF40E0013009F41DCF8C2D1F91B3
:100730000F91FF90EF90DF90CF90BF90AF909F9080
:10074000089581E08093D80082E08093E2008CE0FD
:100750008093E30087E38093E40081E008951F9392
:10076000CF93DF93EC018A85882309F486C08F310B
:1007700009F483C08F3F09F480C088818295807F0F
:100780008093ED000E940802182F803271F08132B0
:1007900018F4882341F069C0803409F45CC0803AC1
:1007A00009F063C002C081E069C08091EF008F70E2
:1007B0008F83888599850E941B028091F00090E0CC
:1007C0008470907095958795959587958B87809186
:1007D000EF00FE01339684FF2BC081E08C8780916F
:1007E000F30086958695869583839091F20080919B
:1007F000F3008295880F807E969596959695890F41
:1008000082839091F1008091F2008295880F807E22
:10081000969596959695890F81839091F000809199
:10082000F1008295880F807E96959695969511C0D9
:100830001C868091F30082958695877081839091C4
:10084000F2008091F300880F880F880F929596959B
:100850009770890F8B831A878091EF008F73809335
:10086000EF001092EE0080E009C01A878091EF003F
:100870008F738093EF001092EE0082E0DF91CF91B2
:100880001F9108950F931F93DF93CF9300D000D053
:10089000CDB7DEB78C01DC0111968D919C9112973A
:1008A0000C97A9F41A968C911A97803669F48C915A
:1008B0008295807F8093ED008091EF008F7380930D
:1008C000EF001092EE001C92F801128633C10E94D4
:1008D000F101982F8F3F09F4F9C480E6D8011A96E8
:1008E0008C931A979C939295907F9093ED00EEEEE7
:1008F000F0E01192E83FF105E1F7F8018181928182
:100900008630910509F4E5C187309105B0F4833054
:10091000910509F411C18430910538F481309105B5
:1009200039F1029709F0CEC491C08430910509F4E1
:1009300055C1059709F0C6C48CC18930910509F4E9
:1009400033C38A30910540F48730910509F408C219
:10095000089709F0B7C499C28A30910521F00B9726
:1009600009F0B0C40BC4D80117964C9190E0BCC3F9
:10097000F80184853396882391F13281932F9295E3
:10098000969597708381880F880F880F980F9093A2
:10099000F3002181822F829586958770330F330F64
:1009A000330F830F8093F200D80113969C91220F8E
:1009B000220F220F892F829586958770280F20930A
:1009C000F100990F990F990F9093F0008091EF002B
:1009D00080618093EF00F801278190E022C0D80168
:1009E00013962C9181818295880F807E922F969507
:1009F00096959695890F8093F3002295220F207E7D
:100A00002093F2008091EF008F7EE3CFD8011896FB
:100A1000ED91FC911997E90FF11D80818093FA0007
:100A20009F5F921798F3F8018385882321F08091C6
:100A3000F000846003C08091F0008B7F8093F00011
:100A40008091EF00282B2093EF006AC0D8011C96FC
:100A50008C91F8013396882391F13281932F9295EE
:100A6000969597708381880F880F880F980F9093C1
:100A7000F3002181822F829586958770330F330F83
:100A8000330F830F8093F200F8019381220F220F1E
:100A9000220F892F829586958770280F2093F10069
:100AA000990F990F990F9093F0008091EF0080615A
:100AB0008093EF00D80117962C9190E022C0D801C6
:100AC00013962C9181818295880F807E922F969526
:100AD00096959695890F8093F3002295220F207E9C
:100AE0002093F2008091EF008F7EE2CFD80118961C
:100AF000ED91FC911997E90FF11D80818093FA0027
:100B00009F5F921798F3F80113868091F0008B7F16
:100B10008093F0008091EF009781892B8093EF0004
:100B20008091EF008F738093EF008091EF008064DD
:100B30008093EF0080E0CEC3D8011C968C91F80121
:100B40003396882361F13281932F92959695977011
:100B50008381880F880F880F980F9093F30021816D
:100B6000822F829586958770330F330F330F830F53
:100B70008093F200F8019381220F220F220F892F18
:100B8000829586958770280F2093F100990F990F11
:100B9000990F9093F0008091EF00806116C0D8010A
:100BA00013962C9181818295880F807E922F969545
:100BB00096959695890F8093F3002295220F207EBB
:100BC0002093F2008091EF008F7E8093EF0081E010
:100BD000F80183878091F00084609ACF19821A828D
:100BE0001B821C82FE0131963281932F929596953D
:100BF00097708381880F880F880F980F9093F70064
:100C00002181822F829586958770330F330F330FA2
:100C1000830F8093F6009981220F220F220F892FD4
:100C2000829586958770280F2093F500990F990F6C
:100C3000990F9093F4008091EF00D80117969C9142
:100C4000892B8093EF008091F4008B7F8093F400D8
:100C500091C219821A821B821C82FE013196328156
:100C6000932F9295969597708381880F880F880FA0
:100C7000980F9093F7002181822F82958695877037
:100C8000330F330F330F830F8093F6009981220FB8
:100C9000220F220F892F829586958770280F209327
:100CA000F500990F990F990F9093F4008091EF0040
:100CB000F8019781892B8093EF0013868091F400CF
:100CC00084608093F4008091F0008B7F8093F0002B
:100CD00051C219821A821B821C82FE013196328116
:100CE000932F9295969597708381880F880F880F20
:100CF000980F9093F7002181822F829586958770B7
:100D0000330F330F330F830F8093F6009981220F37
:100D1000220F220F892F829586958770280F2093A6
:100D2000F500990F990F990F9093F4008091EF00BF
:100D3000D80117969C911797892B8093EF0081E03B
:100D40001B968C938091F40084608093F4008091D2
:100D5000F00084608093F0008091EF008F7D08C2E6
:100D6000F80184853396882369F13281932F929517
:100D7000969597708381880F880F880F980F9093AE
:100D8000F3002181822F829586958770330F330F70
:100D9000330F830F8093F200D80113969C91220F9A
:100DA000220F220F892F829586958770280F209316
:100DB000F100990F990F990F9093F0008091EF0037
:100DC000806116C0D80113962C9181818295880F7D
:100DD000807E922F969596959695890F8093F30035
:100DE0002295220F207E2093F2008091EF008F7ECB
:100DF0008093EF008FEF9FEFAFEFBFEF89839A8370
:100E0000AB83BC83FE0131963281932F92959695E8
:100E100097708381880F880F880F980F9093F70041
:100E20002181822F829586958770330F330F330F80
:100E3000830F8093F6009981220F220F220F892FB2
:100E4000829586958770280F2093F500990F990F4A
:100E5000990F9093F4008091EF00F8019781892B0E
:100E60008093EF008091F4008B7F8093F400809159
:100E7000F40081608093F4008091EF008F73809381
:100E8000EF008091EF00806853CED8011C968C91C2
:100E9000F8013396882361F13281932F92959695CC
:100EA00097708381880F880F880F980F9093F300B5
:100EB0002181822F829586958770330F330F330FF0
:100EC000830F8093F200F8019381220F220F220FEB
:100ED000892F829586958770280F2093F100990FAE
:100EE000990F990F9093F0008091EF00806116C0E8
:100EF000D80113962C9181818295880F807E922F44
:100F0000969596959695890F8093F3002295220FDA
:100F1000207E2093F2008091EF008F7E8093EF007F
:100F20008FEF9FEFAFEFBFEF89839A83AB83BC83D3
:100F3000FE0131963281932F929596959770838119
:100F4000880F880F880F980F9093F7002181822FC8
:100F5000829586958770330F330F330F830F8093FD
:100F6000F6009981220F220F220F892F82958695F4
:100F70008770280F2093F500990F990F990F909380
:100F8000F4008091EF00F8019781892B8093EF00A6
:100F900013868091F40084608093F4008091F000C7
:100FA0008B7F8093F00063CFD8011C968C91F80161
:100FB0003396882361F13281932F9295969597709D
:100FC0008381880F880F880F980F9093F3002181F9
:100FD000822F829586958770330F330F330F830FDF
:100FE0008093F200F8019381220F220F220F892FA4
:100FF000829586958770280F2093F100990F990F9D
:10100000990F9093F0008091EF00806116C0D80195
:1010100013962C9181818295880F807E922F9695D0
:1010200096959695890F8093F3002295220F207E46
:101030002093F2008091EF008F7E8093EF008FEF7E
:101040009FEFAFEFBFEF89839A83AB83BC83FE0131
:1010500031963281932F9295969597708381880F60
:10106000880F880F980F9093F7002181822F829527
:1010700086958770330F330F330F830F8093F600FD
:101080009981220F220F220F892F829586958770D2
:10109000280F2093F500990F990F990F9093F40062
:1010A0008091EF00F8019781892B8093EF0081E018
:1010B00083878091F40084608093F4008091F00035
:1010C00084608093F0008091EF008F7D8093EF002B
:1010D000CECED8011896ED91FC911997E90FF11D2C
:1010E00080818093FA009F5F941798F319821A8287
:1010F0001B821C82FE0131963281932F9295969528
:1011000097708381880F880F880F980F9093F7004E
:101110002181822F829586958770330F330F330F8D
:10112000830F8093F6009981220F220F220F892FBF
:10113000829586958770280F2093F500990F990F57
:10114000990F9093F4008091EF00482B4093EF00AB
:1011500081E0F80183878091F40084608093F4003B
:101160008091F00084608093F0008091EF008062B5
:101170008093EF008091F4008E7F7CCED8011C9686
:101180008C91F8013396882391F13281932F9295B7
:10119000969597708381880F880F880F980F90938A
:1011A000F3002181822F829586958770330F330F4C
:1011B000330F830F8093F200F8019381220F220FE7
:1011C000220F892F829586958770280F2093F10032
:1011D000990F990F990F9093F0008091EF00806123
:1011E0008093EF00D80117964C9190E022C0D8016F
:1011F00013962C9181818295880F807E922F9695EF
:1012000096959695890F8093F3002295220F207E64
:101210002093F2008091EF008F7EE2CFD8011896E4
:10122000ED91FC911997E90FF11D80818093FA00EF
:101230009F5F941798F38FEF9FEFAFEFBFEF898316
:101240009A83AB83BC83FE0131963281932F9295B2
:10125000969597708381880F880F880F980F9093C9
:10126000F7002181822F829586958770330F330F87
:10127000330F830F8093F6009981220F220F220FE4
:10128000892F829586958770280F2093F500990FF6
:10129000990F990F9093F4008091EF00482B4093A1
:1012A000EF0081E0F80183878091F40084608093EF
:1012B000F4008091F00084608093F0008091EF0052
:1012C000806204CFD8011A961C9234CC8FE1F801C9
:1012D00082878FEF0F900F900F900F90CF91DF913B
:1012E0001F910F9108950E94A103882341F00E944D
:1012F000E1018091D80082608093D80081E0089558
:1013000083E060E042E00E942A0182E00E947C01CA
:10131000A0E0B0E0BC01CD012DE730E040E050E0BE
:101320000E94F40A24E630E040E050E00E94270BDF
:10133000C901089581E060E041E00E942A0181E056
:101340000E947C019C0145E0880F991F4A95E1F7B6
:101350006FEF73E0621B730B820F931F0E94130BDE
:101360009B01AAE9B1E0E1E08D919C9111972817CA
:10137000390720F4EE5F1496E133B1F7FF27E7FD5C
:10138000F095EE0FFF1FEA56FE4F8081089581E031
:1013900060E040E00E942A0180E00E947C016FEF43
:1013A00073E0681B790B24E630E0AC01429FC0017A
:1013B000439F900D529F900D11240E94130BAB017F
:1013C000AEE4B1E0FD0127E230E080819181481771
:1013D000590730F42F5F3F4F32962C343105A9F76F
:1013E000215030402632310571F427E230E08D91F2
:1013F0009C9111974817590730F0215030401297AF
:1014000021153105A1F7822F8F500895EF92FF9299
:101410000F931F93BC018091F901813071F5F8940D
:10142000209114023091150240911602509117023A
:1014300078947B0100E010E02E0D3F1D401F511FEE
:10144000F8948091140290911502A0911602B09127
:10145000170282179307A407B50779F08091140249
:1014600090911502A0911602B09117028E159F055A
:10147000A007B10711F07894E3CF1F910F91FF906F
:10148000EF900895F8941092B0001092B20010926C
:10149000B300809170008E7F809370008091700007
:1014A0008D7F809370008091B0008F7C8093B0001E
:1014B0008091B000877B88608093B0008091B600F7
:1014C000877E88608093B60080E28093B30080912D
:1014D000B000887F81608093B0008091B60090E07A
:1014E00087709070892BC9F7B99A809170008260DB
:1014F000809370001092140210921502109216023E
:1015000010921702109213021092120210921902F6
:1015100010921002109218021092110281E0809332
:10152000F901789408951F920F920FB60F9211242B
:101530002F938F939F93AF93BF93809114029091B9
:101540001502A0911602B09117020196A11DB11DBE
:101550008093140290931502A0931602B093170281
:10156000809112029091130201969093130280933E
:1015700012028091120290911302885E934051F5FD
:101580001092130210921202809119028F5F8093C1
:101590001902809119028C33E9F41092190280919A
:1015A00010028F5F80931002809110028C3391F4AF
:1015B00010921002809118028F5F80931802809120
:1015C0001802883139F410921802809111028F5F4D
:1015D00080931102BF91AF919F918F912F910F90A6
:1015E0000FBE0F901F901895629FD001739FF0015E
:1015F000829FE00DF11D649FE00DF11D929FF00DA3
:10160000839FF00D749FF00D659FF00D9927729FD9
:10161000B00DE11DF91F639FB00DE11DF91FBD0164
:10162000CF0111240895AA1BBB1B51E107C0AA1FBB
:10163000BB1FA617B70710F0A61BB70B881F991F73
:101640005A95A9F780959095BC01CD010895A1E226
:101650001A2EAA1BBB1BFD010DC0AA1FBB1FEE1F2C
:10166000FF1FA217B307E407F50720F0A21BB30B77
:10167000E40BF50B661F771F881F991F1A9469F7F3
:1016800060957095809590959B01AC01BD01CF014F
:061690000895F894FFCF5D
:10169600910358032403F302C3029B0274024F0210
:1016A6002C020C02EE01D101B7019E0187017101E6
:1016B6005D014A013801270117010801FA00ED0012
:1016C600E100D500CA00C000B600AD00A4009C0031
:1016D60094008D0086008000790074006E00690019
:1016E60064005F005B00570053004F004B0048004A
:1016F600450042003F003C003A003700350032000A
:1017060030002E002C002B00290027002600240084
:101716002300210020001F001D001C001B001A00D2
:1017260019001800170016000000080701001A0427
:10173600020048030400BC02080062020C003002EA
:10174600110008021700D6011E00A40124007C0126
:101756002C004A0132002C01390004013F00DC0054
:101766004600B4004D008C00550064005B00460046
:1017760062002800670014006E000A007800050069
:0817860087000200A000010031
:00000001FF
