:100000000C944A000C9469000C9469000C946900EB
:100010000C9469000C9469000C9469000C946900BC
:100020000C9469000C9493110C9469000C94690071
:100030000C9469000C9469000C9469000C9469009C
:100040000C9469000C9469000C9433010C946900C1
:100050000C9469000C9469000C9469000C9469007C
:100060000C9469000C9469000C9469000C9469006C
:100070000C9469000C9469000C9469000C9469005C
:100080000C9469000C9469000C9469000C9469004C
:100090000C94690011241FBECFEFD0E1DEBFCDBFAD
:1000A00013E0A0E0B1E0E2E0FEE200E00BBF02C03E
:1000B00007900D92AA35B107D9F713E0AAE5B3E08E
:1000C00001C01D92AB37B107E1F70E946B000C94A1
:1000D000FF160C940000DF93CF93CDB7DEB7E1E6B7
:1000E000F0E080E88083E1E6F0E0108283E040E029
:1000F00056E960E070E00E94231280E00E949005C3
:10010000E1E2F0E08FEF8083E2E2F0E08FEF8083C6
:100110007894EEEDF0E08FEF8083EFEDF0E08FEF7D
:100120008083ABEDB0E0EBEDF0E0808180628C93FA
:10013000ABEDB0E0EBEDF0E0808180688C938BE577
:1001400093E090936D0380936C0310926E030E9472
:10015000AE0080E090E0CF91DF910895DF93CF93E0
:10016000CDB7DEB768970FB6F894DEBF0FBECDBF30
:10017000CE0103969D8B8C8B1E8A00D0EDB7FEB707
:10018000319680E091E0918380830E94FD120F9070
:100190000F9084E690E00E94931019825FC01A824B
:1001A0000AC08A81882F90E0FC01E55AFC4F10823A
:1001B0008A818F5F8A838A81893098F38981882F29
:1001C00090E080589F4F909368038093670310924C
:1001D000700310926F0385E080936B0388E090E0DA
:1001E000909366038093650384E693E00E94AE05D6
:1001F0008823D1F71A820CC08A81282F30E0CE01E3
:100200000396FC01E20FF31F10828A818F5F8A83BD
:100210008A81893088F38981882F90E080589F4FA8
:10022000988B8F87188E81E08F8B88E08B8B83E093
:1002300090E09E878D87CE010C960E94AE058823A4
:10024000D1F7CE010C960E94EB0E8130D1F382E300
:1002500090E00E94931089818F5F89838981882330
:1002600009F49DCF96CF1F920F920FB60F92009078
:100270005B000F9211242F933F934F935F936F93E3
:100280007F938F939F93AF93BF93EF93FF93DF93EE
:10029000CF930F92CDB7DEB7ABEDB0E0EBEDF0E072
:1002A00080818F778C93ABEDB0E0EBEDF0E0808157
:1002B00080688C9384E693E00E94EB0E882309F01B
:1002C000CDC080916703909168039C012F57304007
:1002D00000D000D0EDB7FEB7319685E091E0918374
:1002E0008083338322830E94FD120F900F900F9022
:1002F0000F9080915B03282F30E000D000D0EDB745
:10030000FEB731968EE091E0918380833383228320
:100310000E94FD120F900F900F900F9080915C0340
:10032000282F30E000D000D0EDB7FEB731968CE139
:1003300091E091838083338322830E94FD120F908A
:100340000F900F900F9080915D03282F30E000D028
:1003500000D0EDB7FEB731968AE291E091838083B9
:10036000338322830E94FD120F900F900F900F9005
:1003700080915E03282F30E000D000D0EDB7FEB7AB
:10038000319688E391E091838083338322830E94B6
:10039000FD120F900F900F900F9080915F03282F08
:1003A00030E000D000D0EDB7FEB7319686E491E0A2
:1003B00091838083338322830E94FD120F900F90DC
:1003C0000F900F9080916003282F30E000D000D074
:1003D000EDB7FEB7319684E591E091838083338356
:1003E00022830E94FD120F900F900F900F9080912A
:1003F0006103282F30E000D000D0EDB7FEB7319672
:1004000082E691E091838083338322830E94FD12F0
:100410000F900F900F900F9080916203282F30E083
:1004200000D000D0EDB7FEB7319680E791E0918320
:100430008083338322830E94FD120F900F900F90D0
:100440000F9000D0EDB7FEB731968EE791E0918323
:1004500080830E94FD120F900F900CC08CE090E002
:10046000909366038093650384E693E00E94AE0553
:100470008823D1F70F90CF91DF91FF91EF91BF913A
:10048000AF919F918F917F916F915F914F913F912C
:100490002F910F9000925B000F900FBE0F901F9056
:1004A0001895DF93CF9300D00F92CDB7DEB71B82A4
:1004B0001BC0EDEEF0E08B818295807F80838EEE15
:1004C00090E09A83898308C0E981FA81108289814A
:1004D0009A8101969A83898389819A81883F9105BF
:1004E00098F38B818F5F8B838B818F3010F30F900C
:1004F0000F900F90CF91DF910895DF93CF9300D0AD
:100500000F92CDB7DEB7EDEEF0E0808189831A82DD
:1005100019C0EDEEF0E08A818295807F8083EFEE56
:10052000F0E08081882F90E0807C9070009739F413
:10053000EDEEF0E0898180838A818B830CC08A8113
:100540008F5F8A838A818F3020F3EDEEF0E089811E
:1005500080838FEF8B838B810F900F900F90CF91C3
:10056000DF910895DF93CF9300D00F92CDB7DEB720
:10057000EFEEF0E08081882F90E0807C9070009713
:1005800019F48FEF8B831DC0EEEEF0E0808189833C
:100590008981807E8A838A81803231F08A818034A9
:1005A00019F08A81803A19F48A818B830AC0898183
:1005B0008F718A838A81882319F08A818B8301C095
:1005C0001B828B810F900F900F90CF91DF91089538
:1005D000DF93CF9300D00F92CDB7DEB79B838A8392
:1005E00019820FC08981282F30E08A819B81DC012C
:1005F000A20FB31FEAEFF0E080818C9389818F5FB7
:1006000089838981282F30E0EFEEF0E08081882F08
:1006100090E08F7090702817390724F30F900F9097
:100620000F90CF91DF910895DF93CF93CDB7DEB7D1
:1006300068970FB6F894DEBF0FBECDBF8A8B1E82BF
:10064000188688858B871B821D821C8281E08A87A1
:100650008A898823A9F481E0888B88E08E8782E0EC
:100660008D8782E08C879D858C85890F982F90954A
:100670008E85890F8F8781E08F8381E08987A5C070
:10068000E2EEF0E08081882F90E08E779070959573
:1006900087950196823091056CF0E2EEF0E0808162
:1006A000882F90E08E77907095958795982F9F5F13
:1006B000988F02C081E0888F988D988BE3EEF0E0F0
:1006C0008081882F90E08E70907095958795019627
:1006D000823091056CF0E3EEF0E08081882F90E0AD
:1006E0008E70907095958795982F9F5F9F8B02C015
:1006F00081E08F8B9F899F87E4EEF0E08081882FD7
:1007000090E08E7090709595879501968330910555
:100710006CF0E4EEF0E08081882F90E08E709070B5
:1007200095958795982F9F5F9E8B02C082E08E8B58
:100730009E899D87E4EEF0E08081882F90E08077AD
:1007400090709595879595958795959587959595AD
:1007500087950196833091059CF0E4EEF0E080816E
:10076000882F90E0807790709595879595958795DF
:100770009595879595958795982F9F5F9D8B02C03E
:1007800082E08D8B9D899C878F85282F30E08D8519
:10079000882F90E0280F391F8C85882F90E0820FDA
:1007A000931F01969C8B8B8B8B899C89883091053C
:1007B00024F488E090E09C8B8B8B9B899E8781E062
:1007C000888788858B871F821986198A1BC0EDEE62
:1007D000F0E089898295807F80838EEE90E09A8315
:1007E000898308C0E981FA81108289819A81019602
:1007F0009A83898389819A81883F910598F38989B1
:100800008F5F898B89898F3010F361C18F8181302F
:1008100009F0C2C0E8EDF0E081E080838C819D8129
:1008200001969D838C831E82E2EEF0E088898150E0
:10083000880F8083E3EEF0E08C858695882F90E02A
:100840000197880F991F82959295907F9827807FB6
:100850009827282F8F85882F90E00197880F991F60
:10086000822B8083E4EEF0E08C85882F90E0019766
:1008700082959295907F9827807F9827282F8D8545
:10088000882F90E00197880F991F822B81608083C9
:10089000E5EEF0E08C819D819695879596958795FC
:1008A000969587958083EDEEF0E01082EEEEF0E015
:1008B0001082EFEEF0E080E88083E8EDF0E08AE07F
:1008C0008083E9EDF0E08081882F90E08470907063
:1008D0000097B9F3EAEDF0E08FEF80835DC0EEEEB4
:1008E000F0E08081898B8989882F90E080729070F8
:1008F0000097C9F0198618861A8681E08B83AFEEBF
:10090000B0E0EFEEF0E080818F738C93E8EDF0E0E3
:100910001082E9EDF0E08081882F90E08470907083
:100920000097B9F739C08989882F90E08F7190704E
:10093000009719F081E088871986EAEDF0E0808160
:10094000898B8989882F90E0807290700097C1F020
:100950008E81882359F4AAEDB0E0EAEDF0E08081C1
:1009600080628C938E818F5F8E830AC0AAEDB0E087
:10097000EAEDF0E0808180628C9381E088871986BF
:100980008989882F90E08F709070009729F081E01E
:100990008887198681E08F838985813009F49FCF0C
:1009A00092C08B85882319F08D858F5F8D8781E0BC
:1009B0008B878D85893078F18C85883060F182E075
:1009C0008D8782E08C871B868E85893121F08E850C
:1009D0008F5F8E8778C088E08E878889803421F089
:1009E00088898F5F888B6FC018861B821A86AFEE4E
:1009F000B0E0EFEEF0E080818F738C93E8EDF0E0F3
:100A00001082E9EDF0E08081882F90E08470907092
:100A10000097B9F758C08D85863080F08D85282FD6
:100A200030E08C85882F90E001968217930744F47C
:100A30008C858F5F8C878C858D8702C08D858C8798
:100A40009D858C85890F982F90958E85890F8F872E
:100A50008F858930C0F58F858823A9F18C85882FF3
:100A600090E0AC01440F551F440F551F8F85882F10
:100A700090E09C012F5F3F4F8D85882F90E0820F83
:100A8000931F48175907FCF08C85282F30E08C8580
:100A9000882F90E0280F391F8C85882F90E0A901BE
:100AA000480F591F8F85882F90E09C012F5F3F4F83
:100AB0008D85882F90E0820F931F841795071CF077
:100AC000188681E089878885813009F46ACF8A8514
:100AD000813009F49BCE8B8168960FB6F894DEBF07
:100AE0000FBECDBFCF91DF910895DF93CF930F92CB
:100AF000CDB7DEB78983E8EDF0E081E08083E2EEF8
:100B0000F0E082E08083E3EEF0E08CE08083E4EECE
:100B1000F0E087E3808381E00F90CF91DF9108952B
:100B2000DF93CF9300D0CDB7DEB7898389810E9450
:100B30007505882311F41A820BC00E945102A8ED9A
:100B4000B0E0E8EDF0E0808182608C9381E08A8300
:100B50008A810F900F90CF91DF910895DF93CF930B
:100B6000CDB7DEB72D970FB6F894DEBF0FBECDBF61
:100B70009A878987E985FA85818192818C309105F0
:100B8000F9F4E985FA8582858036A9F4ADEEB0E006
:100B9000E985FA8580818295807F8C93AFEEB0E005
:100BA000EFEEF0E080818F738C93EEEEF0E0108238
:100BB000E985FA851082E985FA8512860C94E00EA3
:100BC0000E947D028C838C818F3F11F40C94D90E8E
:100BD000E985FA8580E68287E985FA858C818083BC
:100BE000EDEEF0E08C818295807F80838EEE90E048
:100BF0009A83898308C0E981FA81108289819A8168
:100C000001969A83898389819A81883F910598F317
:100C1000E985FA85818192819D878C878C859D8568
:100C20008630910509F473C38C859D8587309105C5
:100C300030F58C859D858330910509F4D3C18C8571
:100C40009D858430910568F48C859D858130910562
:100C5000E9F18C859D858230910509F402C10C94DF
:100C6000D50E8C859D858430910509F464C28C85F0
:100C70009D858530910509F4CFC20C94D50E8C85E5
:100C80009D858930910509F4C3C58C859D858A3081
:100C9000910570F48C859D858730910509F4BAC360
:100CA0008C859D858830910509F4AEC40C94D50ED1
:100CB0008C859D858A30910509F4B6C68C859D8505
:100CC0008B30910509F44CC70C94D50EE985FA8553
:100CD0008485882309F457C0A3EFB0E089859A85FD
:100CE0000396FC0133968081282F220F220F220FBA
:100CF00089859A850396FC01329680818295869536
:100D00008770820F8C93A2EFB0E089859A85039655
:100D1000FC0132968081282F220F220F220F898515
:100D20009A850396FC01319680818295869587701D
:100D3000820F8C93A1EFB0E089859A850396FC0120
:100D400031968081282F220F220F220F89859A85C4
:100D50000396FC018081829586958770820F8C9323
:100D6000A0EFB0E089859A850396FC018081880F09
:100D7000880F880F8C93AFEEB0E0EFEEF0E080814B
:100D800080618C9328C0A3EFB0E089859A85039693
:100D9000FC0131968081282F2295220F207E8985A3
:100DA0009A850396FC018081869586958695820FAB
:100DB0008C93A2EFB0E089859A850396FC0180812F
:100DC0008295880F807E8C93AFEEB0E0EFEEF0E07E
:100DD00080818F7E8C931B8211C0AAEFB0E0E985E1
:100DE000FA85208531858B81882F90E0F901E80F05
:100DF000F91F80818C938B818F5F8B83E985FA85C6
:100E000097818B81891748F3E985FA858385882343
:100E100041F0A0EFB0E0E0EFF0E0808184608C93DF
:100E200007C0A0EFB0E0E0EFF0E080818B7F8C9313
:100E3000AFEEB0E0EFEEF0E09081E985FA858781D2
:100E4000892B8C93AFEEB0E0EFEEF0E080818F73F2
:100E50008C93AFEEB0E0EFEEF0E0808180648C9395
:100E6000AFC7E985FA858485882309F457C0A3EFC5
:100E7000B0E089859A850396FC0133968081282FFE
:100E8000220F220F220F89859A850396FC01329644
:100E90008081829586958770820F8C93A2EFB0E057
:100EA00089859A850396FC0132968081282F220F2E
:100EB000220F220F89859A850396FC013196808145
:100EC000829586958770820F8C93A1EFB0E089851B
:100ED0009A850396FC0131968081282F220F220FDC
:100EE000220F89859A850396FC01808182958695DB
:100EF0008770820F8C93A0EFB0E089859A85039666
:100F0000FC018081880F880F880F8C93AFEEB0E0D2
:100F1000EFEEF0E0808180618C9328C0A3EFB0E019
:100F200089859A850396FC0131968081282F229528
:100F3000220F207E89859A850396FC018081869503
:100F400086958695820F8C93A2EFB0E089859A856D
:100F50000396FC0180818295880F807E8C93AFEE92
:100F6000B0E0EFEEF0E080818F7E8C931B8211C0A9
:100F7000AAEFB0E0E985FA85208531858B81882F3D
:100F800090E0F901E80FF91F80818C938B818F5FCE
:100F90008B83E985FA8597818B81891748F3E985E9
:100FA000FA851386A0EFB0E0E0EFF0E080818B7F60
:100FB0008C93AFEEB0E0EFEEF0E09081E985FA853A
:100FC0008781892B8C93AFEEB0E0EFEEF0E080816B
:100FD0008F738C93AFEEB0E0EFEEF0E08081806431
:100FE0008C93EEC6E985FA858485882309F457C079
:100FF000A3EFB0E089859A850396FC013396808142
:10100000282F220F220F220F89859A850396FC0133
:1010100032968081829586958770820F8C93A2EF9D
:10102000B0E089859A850396FC0132968081282F4D
:10103000220F220F220F89859A850396FC01319693
:101040008081829586958770820F8C93A1EFB0E0A6
:1010500089859A850396FC0131968081282F220F7D
:10106000220F220F89859A850396FC018081829543
:1010700086958770820F8C93A0EFB0E089859A8562
:101080000396FC018081880F880F880F8C93AFEE48
:10109000B0E0EFEEF0E0808180618C9328C0A3EF98
:1010A000B0E089859A850396FC0131968081282FCE
:1010B0002295220F207E89859A850396FC018081E6
:1010C000869586958695820F8C93A2EFB0E08985F0
:1010D0009A850396FC0180818295880F807E8C938F
:1010E000AFEEB0E0EFEEF0E080818F7E8C93E9858B
:1010F000FA8581E08387A0EFB0E0E0EFF0E0808147
:1011000084608C93AFEEB0E0EFEEF0E09081E98583
:10111000FA858781892B8C93AFEEB0E0EFEEF0E09B
:1011200080818F738C93AFEEB0E0EFEEF0E08081C2
:1011300080648C9345C61D821E821F821886A7EF8D
:10114000B0E0CE010596FC0133968081282F220F56
:10115000220F220FCE010596FC01329680818295E6
:1011600086958770820F8C93A6EFB0E0CE0105962E
:10117000FC0132968081282F220F220F220FCE01F0
:101180000596FC0131968081829586958770820F45
:101190008C93A5EFB0E0CE010596FC0131968081DD
:1011A000982F990F990F990FFE013596808182959E
:1011B00086958770890F8C93A4EFB0E0FE01359679
:1011C0008081880F880F880F8C93AFEEB0E0EFEE30
:1011D000F0E09081E985FA858781892B8C93A4EFD3
:1011E000B0E0E4EFF0E080818B7F8C93A4EFB0E07F
:1011F000E4EFF0E080818E7F8C93AFEEB0E0EFEE15
:10120000F0E080818F738C93AFEEB0E0EFEEF0E012
:10121000808180688C93D4C51D821E821F821886AF
:10122000A7EFB0E0CE010596FC0133968081282F10
:10123000220F220F220FCE010596FC0132968081EB
:10124000829586958770820F8C93A6EFB0E0CE01D1
:101250000596FC0132968081282F220F220F220F43
:10126000CE010596FC013196808182958695877026
:10127000820F8C93A5EFB0E0CE010596FC0131966C
:101280008081982F990F990F990FFE0135968081D3
:10129000829586958770890F8C93A4EFB0E0FE014C
:1012A00035968081880F880F880F8C93AFEEB0E061
:1012B000EFEEF0E09081E985FA858781892B8C93A8
:1012C000E985FA851386A4EFB0E0E4EFF0E08081D1
:1012D00084608C93A0EFB0E0E0EFF0E080818B7F42
:1012E0008C93A4EFB0E0E4EFF0E080818E7F8C93EC
:1012F000AFEEB0E0EFEEF0E080818F738C93AFEE55
:10130000B0E0EFEEF0E0808180688C9359C51D82DB
:101310001E821F821886A7EFB0E0CE010596FC0161
:1013200033968081282F220F220F220FCE0105969F
:10133000FC0132968081829586958770820F8C930E
:10134000A6EFB0E0CE010596FC0132968081282FF1
:10135000220F220F220FCE010596FC0131968081CB
:10136000829586958770820F8C93A5EFB0E0CE01B1
:101370000596FC0131968081982F990F990F990F4E
:10138000FE0135968081829586958770890F8C93B2
:10139000A4EFB0E0FE0135968081880F880F880F9A
:1013A0008C93AFEEB0E0EFEEF0E09081E985FA8546
:1013B0008781892B8C93E985FA8581E08387A4EF67
:1013C000B0E0E4EFF0E0808184608C93A0EFB0E0C7
:1013D000E0EFF0E0808184608C93AFEEB0E0EFEE60
:1013E000F0E080818F7D8C93A4EFB0E0E4EFF0E03B
:1013F00080818E7F8C93AFEEB0E0EFEEF0E08081E5
:101400008F738C93AFEEB0E0EFEEF0E080818068F8
:101410008C93D6C4E985FA858485882309F457C05E
:10142000A3EFB0E089859A850396FC01339680810D
:10143000282F220F220F220F89859A850396FC01FF
:1014400032968081829586958770820F8C93A2EF69
:10145000B0E089859A850396FC0132968081282F19
:10146000220F220F220F89859A850396FC0131965F
:101470008081829586958770820F8C93A1EFB0E072
:1014800089859A850396FC0131968081282F220F49
:10149000220F220F89859A850396FC01808182950F
:1014A00086958770820F8C93A0EFB0E089859A852E
:1014B0000396FC018081880F880F880F8C93AFEE14
:1014C000B0E0EFEEF0E0808180618C9328C0A3EF64
:1014D000B0E089859A850396FC0131968081282F9A
:1014E0002295220F207E89859A850396FC018081B2
:1014F000869586958695820F8C93A2EFB0E08985BC
:101500009A850396FC0180818295880F807E8C935A
:10151000AFEEB0E0EFEEF0E080818F7E8C938FEF46
:101520009FEFAFEFBFEF8D839E83AF83B887A7EFA9
:10153000B0E0CE010596FC0133968081282F220F62
:10154000220F220FCE010596FC01329680818295F2
:1015500086958770820F8C93A6EFB0E0CE0105963A
:10156000FC0132968081282F220F220F220FCE01FC
:101570000596FC0131968081829586958770820F51
:101580008C93A5EFB0E0CE010596FC0131968081E9
:10159000982F990F990F990FFE01359680818295AA
:1015A00086958770890F8C93A4EFB0E0FE01359685
:1015B0008081880F880F880F8C93AFEEB0E0EFEE3C
:1015C000F0E09081E985FA858781892B8C93A4EFDF
:1015D000B0E0E4EFF0E080818B7F8C93A4EFB0E08B
:1015E000E4EFF0E0808181608C93AFEEB0E0EFEE4D
:1015F000F0E080818F738C93AFEEB0E0EFEEF0E01F
:10160000808180688C93DCC3E985FA858485882392
:1016100009F457C0A3EFB0E089859A850396FC01D1
:1016200033968081282F220F220F220F89859A85D9
:101630000396FC0132968081829586958770820F91
:101640008C93A2EFB0E089859A850396FC013296CF
:101650008081282F220F220F220F89859A850396D9
:10166000FC0131968081829586958770820F8C93DC
:10167000A1EFB0E089859A850396FC0131968081BF
:10168000282F220F220F220F89859A850396FC01AD
:101690008081829586958770820F8C93A0EFB0E051
:1016A00089859A850396FC018081880F880F880FB1
:1016B0008C93AFEEB0E0EFEEF0E0808180618C9330
:1016C00028C0A3EFB0E089859A850396FC01319686
:1016D0008081282F2295220F207E89859A85039666
:1016E000FC018081869586958695820F8C93A2EF6A
:1016F000B0E089859A850396FC0180818295880FE8
:10170000807E8C93AFEEB0E0EFEEF0E080818F7ED4
:101710008C938FEF9FEFAFEFBFEF8D839E83AF83EF
:10172000B887A7EFB0E0CE010596FC013396808123
:10173000282F220F220F220FCE010596FC01329690
:101740008081829586958770820F8C93A6EFB0E09A
:10175000CE010596FC0132968081282F220F220FA0
:10176000220FCE010596FC013196808182958695E7
:101770008770820F8C93A5EFB0E0CE010596FC0137
:1017800031968081982F990F990F990FFE01359608
:101790008081829586958770890F8C93A4EFB0E045
:1017A000FE0135968081880F880F880F8C93AFEEED
:1017B000B0E0EFEEF0E09081E985FA858781892B32
:1017C0008C93E985FA851386A4EFB0E0E4EFF0E0AE
:1017D000808184608C93A0EFB0E0E0EFF0E0808146
:1017E0008B7F8C93A4EFB0E0E4EFF0E08081816028
:1017F0008C93AFEEB0E0EFEEF0E080818F738C93CE
:10180000AFEEB0E0EFEEF0E0808180688C93D8C25C
:10181000E985FA858485882309F457C0A3EFB0E0F1
:1018200089859A850396FC0133968081282F220FA3
:10183000220F220F89859A850396FC0132968081BA
:10184000829586958770820F8C93A2EFB0E0898590
:101850009A850396FC0132968081282F220F220F51
:10186000220F89859A850396FC01319680818295A5
:1018700086958770820F8C93A1EFB0E089859A8559
:101880000396FC0131968081282F220F220F220F10
:1018900089859A850396FC0180818295869587705B
:1018A000820F8C93A0EFB0E089859A850396FC01A6
:1018B0008081880F880F880F8C93AFEEB0E0EFEE39
:1018C000F0E0808180618C9328C0A3EFB0E089852F
:1018D0009A850396FC0131968081282F2295220F4C
:1018E000207E89859A850396FC0180818695869560
:1018F0008695820F8C93A2EFB0E089859A85039636
:10190000FC0180818295880F807E8C93AFEEB0E0E1
:10191000EFEEF0E080818F7E8C938FEF9FEFAFEF43
:10192000BFEF8D839E83AF83B887A7EFB0E0CE0172
:101930000596FC0133968081282F220F220F220F5B
:10194000CE010596FC01329680818295869587703E
:10195000820F8C93A6EFB0E0CE010596FC01329683
:101960008081282F220F220F220FCE010596FC0125
:1019700031968081829586958770820F8C93A5EF32
:10198000B0E0CE010596FC0131968081982F990F29
:10199000990F990FFE013596808182958695877003
:1019A000890F8C93A4EFB0E0FE0135968081880FFB
:1019B000880F880F8C93AFEEB0E0EFEEF0E09081EF
:1019C000E985FA858781892B8C93E985FA8581E001
:1019D0008387A4EFB0E0E4EFF0E0808184608C9333
:1019E000A0EFB0E0E0EFF0E0808184608C93AFEE98
:1019F000B0E0EFEEF0E080818F7D8C93A4EFB0E05B
:101A0000E4EFF0E0808181608C93AFEEB0E0EFEE28
:101A1000F0E080818F738C93AFEEB0E0EFEEF0E0FA
:101A2000808180688C93CCC11B8211C0AAEFB0E08A
:101A3000E985FA85208531858B81882F90E0F90131
:101A4000E80FF91F80818C938B818F5F8B83E985F1
:101A5000FA8597818B81891748F31D821E821F8228
:101A60001886A7EFB0E0CE010596FC013396808181
:101A7000282F220F220F220FCE010596FC0132964D
:101A80008081829586958770820F8C93A6EFB0E057
:101A9000CE010596FC0132968081282F220F220F5D
:101AA000220FCE010596FC013196808182958695A4
:101AB0008770820F8C93A5EFB0E0CE010596FC01F4
:101AC00031968081982F990F990F990FFE013596C5
:101AD0008081829586958770890F8C93A4EFB0E002
:101AE000FE0135968081880F880F880F8C93AFEEAA
:101AF000B0E0EFEEF0E09081E985FA858781892BEF
:101B00008C93E985FA8581E08387A4EFB0E0E4EF68
:101B1000F0E0808184608C93A0EFB0E0E0EFF0E033
:101B2000808184608C93AFEEB0E0EFEEF0E08081D6
:101B300080628C93A4EFB0E0E4EFF0E080818E7FD0
:101B40008C93AFEEB0E0EFEEF0E080818F738C937A
:101B5000AFEEB0E0EFEEF0E0808180688C9330C1B2
:101B6000E985FA858485882309F457C0A3EFB0E09E
:101B700089859A850396FC0133968081282F220F50
:101B8000220F220F89859A850396FC013296808167
:101B9000829586958770820F8C93A2EFB0E089853D
:101BA0009A850396FC0132968081282F220F220FFE
:101BB000220F89859A850396FC0131968081829552
:101BC00086958770820F8C93A1EFB0E089859A8506
:101BD0000396FC0131968081282F220F220F220FBD
:101BE00089859A850396FC01808182958695877008
:101BF000820F8C93A0EFB0E089859A850396FC0153
:101C00008081880F880F880F8C93AFEEB0E0EFEEE5
:101C1000F0E0808180618C9328C0A3EFB0E08985DB
:101C20009A850396FC0131968081282F2295220FF8
:101C3000207E89859A850396FC018081869586950C
:101C40008695820F8C93A2EFB0E089859A850396E2
:101C5000FC0180818295880F807E8C93AFEEB0E08E
:101C6000EFEEF0E080818F7E8C931B8211C0AAEF93
:101C7000B0E0E985FA85208531858B81882F90E059
:101C8000F901E80FF91F80818C938B818F5F8B8323
:101C9000E985FA8597818B81891748F38FEF9FEF4C
:101CA000AFEFBFEF8D839E83AF83B887A7EFB0E020
:101CB000CE010596FC0133968081282F220F220F3A
:101CC000220FCE010596FC01329680818295869581
:101CD0008770820F8C93A6EFB0E0CE010596FC01D1
:101CE00032968081282F220F220F220FCE010596D7
:101CF000FC0131968081829586958770820F8C9346
:101D0000A5EFB0E0CE010596FC0131968081982FB9
:101D1000990F990F990FFE013596808182958695CE
:101D20008770890F8C93A4EFB0E0FE013596808117
:101D3000880F880F880F8C93AFEEB0E0EFEEF0E0E5
:101D40009081E985FA858781892B8C93E985FA85CD
:101D500081E08387A4EFB0E0E4EFF0E0808184606D
:101D60008C93A0EFB0E0E0EFF0E0808184608C9392
:101D7000AFEEB0E0EFEEF0E0808180628C93A4EFF4
:101D8000B0E0E4EFF0E0808181608C93AFEEB0E0F2
:101D9000EFEEF0E080818F738C93AFEEB0E0EFEE6A
:101DA000F0E0808180688C930BC0E985FA8512860B
:101DB00007C0E985FA858FE182879FEF9B8701C085
:101DC0001B868B852D960FB6F894DEBF0FBECDBF58
:101DD000CF91DF910895DF93CF93CDB7DEB72797EB
:101DE0000FB6F894DEBF0FBECDBF9C838B83EB8113
:101DF000FC8182858A838A81882331F08A818F31B0
:101E000019F08A818F3F19F422E02F83FBC0ADEED9
:101E1000B0E0EB81FC8180818295807F8C930E9471
:101E2000B2028A838A81282F30E03E832D838D8100
:101E30009E8180329105C9F02D813E81213231058C
:101E40002CF48D819E81009769F0CAC02D813E815E
:101E50002034310509F4B4C08D819E81803A91050A
:101E600021F0BEC081E08983CBC0EFEEF0E080813D
:101E70008F70EB81FC818783EB81FC81808591856C
:101E80000E94E802E0EFF0E08081882F90E084700B
:101E900090709595879595958795EB81FC818387C3
:101EA000EFEEF0E08081882F90E080719070959542
:101EB000879595958795959587959595879500979D
:101EC00009F44CC0EB81FC8181E084878B819C818B
:101ED0000396DC011396E3EFF0E08081869586950A
:101EE00086958C938B819C810396DC011296E2EFA0
:101EF000F0E08081982F969596959695E3EFF0E027
:101F000080818295880F807E890F8C938B819C8144
:101F10000396DC011196E1EFF0E08081982F969511
:101F200096959695E2EFF0E080818295880F807E0D
:101F3000890F8C938B819C810396DC01E0EFF0E0AC
:101F40008081982F969596959695E1EFF0E08081A7
:101F50008295880F807E890F8C9322C0EB81FC8153
:101F600014868B819C810396DC011196E3EFF0E0EF
:101F700080818295869587708C938B819C81039656
:101F8000DC01E2EFF0E08081982F929596959770B2
:101F9000E3EFF0E08081880F880F880F890F8C9322
:101FA000EB81FC818A818287AFEEB0E0EFEEF0E05A
:101FB00080818F738C93EEEEF0E01082198220C046
:101FC000EB81FC818A818287AFEEB0E0EFEEF0E03A
:101FD00080818F738C93EEEEF0E01082198210C036
:101FE000EB81FC818A818287AFEEB0E0EFEEF0E01A
:101FF00080818F738C93EEEEF0E0108282E0898313
:1020000099819F838F8127960FB6F894DEBF0FBE0C
:10201000CDBFCF91DF910895DF93CF93CDB7DEB7DA
:10202000E1E2F0E08FEF8083E2E2F0E01082CF9116
:10203000DF910895DF93CF930F92CDB7DEB78983F9
:10204000E2E2F0E0898180830F90CF91DF910895E3
:10205000DF93CF93CDB7DEB7A2E2B0E0E0E2F0E0ED
:102060008081882F90E082959295907F9827807F3D
:102070009827982FE0E2F0E0808182958F70892B7D
:102080008C93CF91DF910895DF93CF93CDB7DEB7D7
:10209000E0E2F0E08FEF8083CF91DF910895DF934E
:1020A000CF9300D00F92CDB7DEB78A836B831982AE
:1020B0008A81883088F58B818823B1F481E0898317
:1020C000A2E2B0E0E2E2F0E08081482F8A81282F8E
:1020D00030E081E090E0022E02C0880F991F0A9440
:1020E000E2F7809584238C938B818130A9F481E081
:1020F0008983A2E2B0E0E2E2F0E08081482F8A81A9
:10210000282F30E081E090E0022E02C0880F991F56
:102110000A94E2F7842B8C9389810F900F900F9093
:10212000CF91DF910895DF93CF93CDB7DEB72A9794
:102130000FB6F894DEBF0FBECDBF9A878987809116
:102140005A03813009F045C0F8948091750390914D
:102150007603A0917703B09178038D839E83AF833C
:10216000B887789489859A859C0140E050E08D81FC
:102170009E81AF81B885820F931FA41FB51F8D83E9
:102180009E83AF83B887F8942091750330917603CE
:1021900040917703509178038D819E81AF81B885FE
:1021A000281739074A075B0799F189859A859C01A9
:1021B00040E050E08091750390917603A091770301
:1021C000B0917803281739074A075B0709F178941B
:1021D000DACF1C821B8215C01A820BC0198203C081
:1021E00089818F5F898389818A35D0F38A818F5F66
:1021F0008A838A81883090F38B819C8101969C83AD
:102200008B832B813C8189859A852817390720F398
:102210002A960FB6F894DEBF0FBECDBFCF91DF91E7
:102220000895DF93CF9300D0CDB7DEB7F894E0EBFD
:10223000F0E01082E2EBF0E01082E3EBF0E01082DD
:102240001A82198205C089819A8101969A838983AD
:1022500089819A812FEF8F3F9207A9F7A0E7B0E01D
:10226000E0E7F0E080818E7F8C93A0E7B0E0E0E7CC
:10227000F0E080818D7F8C93A0EBB0E0E0EBF0E0AC
:1022800080818F7C8C93A0EBB0E0E0EBF0E080816C
:10229000877B88608C93A6EBB0E0E6EBF0E0808172
:1022A000877E88608C93E3EBF0E080E28083A0EB94
:1022B000B0E0E0EBF0E08081887F81608C93E6EB1A
:1022C000F0E08081882F90E0877090700097B9F7D8
:1022D000A7E3B0E0E7E3F0E0808182608C93A0E7C1
:1022E000B0E0E0E7F0E0808182608C9310927503AB
:1022F0001092760310927703109278031092740371
:102300001092730310927A03109271031092790362
:102310001092720381E080935A0378940F900F908B
:10232000CF91DF9108951F920F920FB60F92112453
:102330002F938F939F93AF93BF93DF93CF93CDB79B
:10234000DEB78091750390917603A0917703B091E9
:1023500078030196A11DB11D8093750390937603B8
:10236000A0937703B09378038091730390917403E3
:1023700001969093740380937303809173039091FB
:10238000740323E0883E920751F510927403109273
:10239000730380917A038F5F80937A0380917A032D
:1023A0008C33E9F410927A03809171038F5F8093EC
:1023B0007103809171038C3391F4109271038091B9
:1023C00079038F5F8093790380917903883139F4A1
:1023D00010927903809172038F5F80937203CF9183
:1023E000DF91BF91AF919F918F912F910F900FBE71
:1023F0000F901F901895DF93CF930F92CDB7DEB754
:102400001982ECE2F0E09081ECE2F0E08081982328
:10241000ECE2F0E0808189238170898389810F90CB
:10242000CF91DF910895DF93CF930F92CDB7DEB7B1
:102430001982ECE2F0E080818170898389810F90BC
:10244000CF91DF910895DF93CF9300D000D000D0DB
:10245000CDB7DEB789834A835B836C837D83E1ECF0
:10246000F0E01082A2ECB0E0E6ECF0E080818C932A
:10247000E0ECF0E080E48083E2ECF0E086E0808352
:10248000E5ECF0E01082E4ECF0E01082E5ECF0E046
:102490001082E4ECF0E089E18083A0ECB0E0E0ECB5
:1024A000F0E0808182608C938C91882311F41E82ED
:1024B00035C0A0ECB0E0E0ECF0E0808180628C936D
:1024C000A1ECB0E0E1ECF0E080818B7F8C93A1EC9B
:1024D000B0E0E1ECF0E08081982F89818470892B55
:1024E0008C93E2ECF0E0898188738083A2ECB0E009
:1024F000E2ECF0E08081282F8981882F90E08370C2
:102500009070880F991F822B8C93A1ECB0E0E1ECC6
:10251000F0E0808188618C9381E08E838E812696A5
:102520000FB6F894DEBF0FBECDBFCF91DF910895F7
:10253000DF93CF93CDB7DEB7E0ECF0E08081881F6A
:102540008827881FCF91DF910895DF93CF930F9253
:10255000CDB7DEB78983E0ECF0E08081882F90E092
:1025600080729070959587959595879595958795A7
:102570009595879595958795009769F3E6ECF0E03A
:102580008981808389810F90CF91DF910895DF93B6
:10259000CF930F92CDB7DEB7E0ECF0E08081881FDB
:1025A0008827881F882F90E090700097A9F3E6ECA9
:1025B000F0E08081898389810F90CF91DF91089528
:1025C000DF93CF9300D0CDB7DEB79A8389830BC05A
:1025D000E981FA81208189819A8101969A83898390
:1025E000822F0E94A512E981FA818081882381F7D8
:1025F0000F900F90CF91DF9108950F931F93DF936A
:10260000CF93CDB7DEB7AF970FB6F894DEBF0FBE4E
:10261000CDBF1F861E868BE0888BCE01C896998F12
:10262000888F8EA99FA99F8B8E8B73C3EE89FF899C
:102630008081853221F08E85813009F047C08E89F6
:102640009F8901969F8B8E8BEE89FF898081282F31
:1026500030E03FA72EA78EA59FA58436910509F4EB
:1026600096C02EA53FA52536310594F48EA59FA5CD
:102670008835910509F4FCC12EA53FA52336310507
:1026800069F18EA59FA58033910509F4BBC22DC3C6
:102690002EA53FA523373105E9F18EA59FA58437E7
:1026A00091053CF42EA53FA52C36310509F45CC0FC
:1026B0001CC38EA59FA58537910509F436C12EA5AB
:1026C0003FA52837310509F4D3C10FC3EE89FF892F
:1026D00080810E94A5121E861F8616C38F858130B9
:1026E00039F48CE60E94A51283E60E94A5120DC063
:1026F000288D398DC9010296998F888FF9018081C3
:1027000091818D878D850E94A5128BE0888B1E8616
:102710001F86FAC28F85813039F48CE60E94A5129B
:1027200083E70E94A5121BC0288D398DC90102962E
:10273000998F888FF901808191819D8B8C8B0AC044
:10274000EC89FD8980810E94A5128C899D89019662
:102750009D8B8C8BEC89FD898081882389F78BE0A8
:10276000888B1E861F86D0C28F85813031F48CE61F
:102770000E94A5121E861F8604C081E08E8781E01C
:102780008F878E899F8901979F8B8E8BBDC21A8AF6
:10279000198A0DC08989282F30E0CE014A96FC01A4
:1027A000E20FF31F80E3808389898F5F898B89899A
:1027B0008B3080F31DA28AE0898B8F85882309F4F2
:1027C0005DC0288D398DC9010496998F888FF901D4
:1027D00080819181A281B3818F839887A987BA87ED
:1027E0008F819885A985BA85BB238CF481E08A8B7B
:1027F0008F819885A985BA85B095A095909581958A
:102800009F4FAF4FBF4F8F839887A987BA8789891A
:10281000082F10E08F819885A985BA852AE030E0DD
:1028200040E050E0BC01CD010E94E416DC01CB0188
:10283000282F205DCE014A96FC01E00FF11F208376
:102840008F819885A985BA852AE030E040E050E084
:10285000BC01CD010E94E416DA01C9018F8398877B
:10286000A987BA8789898150898B8F819885A985A5
:10287000BA850097A105B105D9F1C9CF288D398D49
:10288000C9010296998F888FF901808191819C8777
:102890008B878B859C8599234CF481E08A8B8B8573
:1028A0009C85909581959F4F9C878B878989E82F80
:1028B000F0E08B859C852AE030E0B9010E94AF16DC
:1028C000282F205DCE014A96E80FF91F20838B85C3
:1028D0009C852AE030E0B9010E94AF16CB019C87AD
:1028E0008B8789898150898B8B859C850097F1F630
:1028F0008A89882319F08DE20E94A51289898F5F49
:10290000898B98898989981710F48889898B898996
:10291000282F30E0CE014A96820F931F0E94E012CA
:102920008BE0888B1E861F86EFC1198A0DC08989AE
:10293000282F30E0CE014A96FC01E20FF31F80E31E
:10294000808389898F5F898B89898B3080F31DA271
:102950008AE0898B8F85882309F446C0288D398DBC
:10296000C9010496998F888FF90180819181A28194
:10297000B38189839A83AB83BC838989082F10E054
:1029800089819A81AB81BC812AE030E040E050E04F
:10299000BC01CD010E94C216DC01CB01282F205DB5
:1029A000CE014A96FC01E00FF11F208389819A81B4
:1029B000AB81BC812AE030E040E050E0BC01CD01B9
:1029C0000E94C216DA01C90189839A83AB83BC8352
:1029D00089898150898B89819A81AB81BC810097DB
:1029E000A105B10571F1C9CF288D398DC9010296B4
:1029F000998F888FF901808191819E838D83898948
:102A0000E82FF0E08D819E812AE030E0B9010E943C
:102A10009B16282F205DCE014A96E80FF91F2083D0
:102A200089898150898B8D819E812AE030E0B901AE
:102A30000E949B16CB019E838D838D819E81009782
:102A4000F1F689898F5F898B98898989981710F4A5
:102A50008889898B8989282F30E0CE014A96820F98
:102A6000931F0E94E0128BE0888B1E861F864CC14C
:102A7000198A0DC08989282F30E0CE014A96FC01C1
:102A8000E20FF31F80E3808389898F5F898B8989B7
:102A90008B3080F31DA28AE0898B8F85882309F40F
:102AA00055C0288D398DC9010496998F888FF901F9
:102AB00080819181A281B38189839A83AB83BC8316
:102AC0003BC089818F708B8B8989282F30E03DA78F
:102AD0002CA78B898A3028F48B89382F305D3BA74F
:102AE00010C0EE89FF898081883719F481E68AA7B2
:102AF00002C091E49AA78B892AA5820F382F3A50F9
:102B00003BA7CE014A96ECA5FDA5E80FF91F8BA5C2
:102B1000808389819A81AB81BC81689413F8B695D2
:102B2000A795979587951694D1F789839A83AB8358
:102B3000BC8389898150898B89819A81AB81BC81D1
:102B40000097A105B10509F0BCCF45C0288D398D8E
:102B5000C9010296998F888FF901808191819E83A6
:102B60008D8335C08D818F708B8B8989282F30E0C4
:102B700039A728A78B898A3028F48B89382F305DB4
:102B80003FA310C0EE89FF898081883719F481E660
:102B90008EA302C091E49EA38B892EA1820F382FB1
:102BA0003A503FA3CE014A96E8A5F9A5E80FF91FD0
:102BB0008FA180838D819E81929582958F708927C8
:102BC0009F7089279E838D8389898150898B8D8110
:102BD0009E81009739F689898F5F898B98898989C9
:102BE000981710F48889898B8989282F30E0CE01C5
:102BF0004A96820F931F0E94E0128BE0888B1E86FC
:102C00001F8682C08BE0888B8F85813049F48CE6EB
:102C10000E94A51280E30E94A5121E861F8674C022
:102C20008E899F8901969F8B8E8BEE89FF8980818B
:102C30008B8B8B89803308F44DC08B898A3308F0E5
:102C400049C08B898F70888B8E899F8901969F8B55
:102C50008E8BEE89FF8980818B8B8B89803390F0FE
:102C60008B898A3378F488898295807F888B8B89D9
:102C7000982F9F708889892B888B8E899F890196D0
:102C80009F8B8E8B8889482F4F70888982958F7093
:102C9000882F90E09C01220F331FC901880F991FD4
:102CA000880F991F820F931F840F888B88898C301F
:102CB00010F08BE0888B9BE08889292F281B822FBE
:102CC000888B8E899F8902979F8B8E8B81E08E8760
:102CD0001F861AC080E30E94A512EE89FF898081B9
:102CE0000E94A5121E861F860FC08F85813019F4A1
:102CF0008CE60E94A512EE89FF8980810E94A512B0
:102D00008BE0888B1E861F868E899F8901969F8BFC
:102D10008E8BEE89FF898081882309F087CC80E043
:102D2000AF960FB6F894DEBF0FBECDBFCF91DF9147
:102D30001F910F910895AA1BBB1B51E107C0AA1F49
:102D4000BB1FA617B70710F0A61BB70B881F991F4C
:102D50005A95A9F780959095BC01CD01089597FBF0
:102D6000092E07260AD077FD04D0E5DF06D0002023
:102D70001AF4709561957F4F0895F6F790958195B7
:102D80009F4F0895A1E21A2EAA1BBB1BFD010DC087
:102D9000AA1FBB1FEE1FFF1FA217B307E407F5070B
:102DA00020F0A21BB30BE40BF50B661F771F881FE7
:102DB000991F1A9469F760957095809590959B017D
:102DC000AC01BD01CF01089597FB092E05260ED059
:102DD00057FD04D0D7DF0AD0001C38F45095409539
:102DE000309521953F4F4F4F5F4F0895F6F79095DF
:102DF0008095709561957F4F8F4F9F4F0895F89400
:022E0000FFCF02
:102E0200474F474F004E6F64653A202564002C20DF
:102E120044617461313A2025303364002C204461CE
:102E22007461323A2025303364002C20446174618D
:102E3200333A2025303364002C2044617461343AE3
:102E42002025303364002C2044617461353A2025FA
:102E5200303364002C2044617461363A20253033CB
:102E620064002C2044617461373A202530336400B9
:102E72002C2044617461383A2025303364000D0AF5
:102E8200000D0A20202020202020205F5F5F5F5F4E
:102E92005F5F5F5F5F5F5F5F5F5F5F5F5F5F5F5F40
:102EA2005F5F5F5F5F5F5F5F0D0A20202020202051
:102EB2002F5F5F5F2020205F5F5F5F5F5F5F5F5F0D
:102EC2005F5F5F5F5F5F5F5F5F5F5F5F5F5F5F7CF3
:102ED2000D0A20202020205F5F5F20207C207C20A4
:102EE200205F5F5F5F5F5F5F5F202020205F5F5F2B
:102EF2005F2020205F0D0A202020202F2020207C10
:102F0200207C207C207C20205F2020205F205C20F1
:102F1200207C20205F5F7C207C207C0D0A202020EA
:102F22002F202F7C207C207C207C207C207C207CFD
:102F3200207C207C207C207C207C5F5F20207C20E9
:102F42007C0D0A20202F202F207C207C207C207CBE
:102F5200207C207C207C207C207C207C207C2020EB
:102F62005F5F7C207C207C0D0A202F202F5F207C3D
:102F7200207C207C207C207C207C207C207C207C6F
:102F8200207C207C207C5F5F20207C207C5F5F0D8A
:102F92000A2F5F5F5F5F7C7C5F7C207C5F7C207C94
:102FA2005F7C207C5F7C207C5F7C207C5F5F5F5F3E
:102FB2007C207C5F5F5F2F0D0A2C2D2D2D2D2D2D5A
:102FC2002D2D2D2D2D2D2D2D2D2D2D2D2D2D2D2D2F
:102FD2002D2D2D2D2D2D2D2D2D2D2D2D2D2C0D0A63
:102FE2007C204154393043414E7878204C696272DA
:102FF2006172792056657273696F6E20332E32309A
:103002002020202F202852290D0A272D2D2D2D2D4D
:103012002D2D2D2D2D2D2D2D2D2D2D2D2D2D2D2DDE
:103022002D2D2D2D2D2D2D2D2D2D2D2D270D0A0A3A
:10303200002D2D2D204154393043414E7878204CBB
:103042006962726172792056657273696F6E20339C
:0A3052002E3230202D2D2D0D0A0026
:00000001FF
